:100000003A313030303030303033413330333233C6
:1000100030333033303330333033343331333033C3
:1000200030333034353431304444430D0A3A3130C2
:100030003030313030303041334133313330333090
:100040003330333033303330333033303330333098
:1000500033303330333246390D0A3A3130303032B2
:100060003030303332333033393434333234343364
:100070003033303331333034343339333234343352
:1000800030333036370D0A3A31303030333030309B
:100090003331333034343432333234343330333038
:1000A00033313330343333363044304133413331FC
:1000B00041370D0A3A31303030343030303330335C
:1000C000303330333133303330333034343434330D
:1000D0003234343330333033313330343435430D0C
:1000E0000A3A31303030353030303436333234340F
:1000F00033303330333133303435333133323434D9
:100100003330333033313330333034360D0A3A3113
:1001100030303036303030333033303330333033CA
:10012000303330333033383433304430413341337B
:100130003133303330333042330D0A3A31303030DE
:100140003730303033323330333033303330333094
:100150003330333033303330333033303330333087
:100160003330333037450D0A3A31303030383030A3
:100170003033303330333033303330333033303367
:10018000303330333033303330343533333332344B
:100190003434320D0A3A3130303039303030333087
:1001A0003330333133303432333030443041334103
:1001B0003331333033303330333333303330383816
:1001C0000D0A3A313030304130303033303435334D
:1001D00035333234343330333033313330333033FA
:1001E000303330333033303330333031460D0A3A28
:1001F00031303030423030303330343533373332D1
:1002000034343330333033313330333333313330CC
:10021000333833303330333130300D0A3A31303007
:100220003043303030333033333331304430413386
:100230004133313330333033303334333033303390
:10024000303435343433440D0A3A313030304430B0
:10025000303033323434333033303331333034357B
:100260003436333234343330333033313330343660
:10027000333142300D0A3A3130303045303030338E
:100280003234343330333033313330343533353343
:10029000313330333033303331333033323337442A
:1002A000340D0A3A3130303046303030304430414D
:1002B000334133313330333033303335333033300F
:1002C00033303436333533323434333030380D0A4A
:1002D0003A31303031303030303330333133303404
:1002E00032333533313330333033303331333034EC
:1002F00033333533313330333042430D0A3A313002
:1003000030313130303033303331333034343335D1
:1003100033313330333033303331333034323436B9
:1003200030443041334144410D0A3A3130303132AA
:1003300030303033313330333033303336333033A1
:100340003033303436343433323434333033303382
:1003500031333038370D0A3A3130303133303030C4
:10036000343634363332343433303330333133305F
:10037000333033313332343533303330333133305B
:1003800036330D0A3A313030313430303033303397
:10039000333332343533303330333133303339342F
:1003A0003130443041334133313330333042380D12
:1003B0000A3A313030313530303033303337333042
:1003C0003330333033303335333234353330333008
:1003D0003331333033303339333037320D0A3A3139
:1003E00030303136303030343233303330333133F3
:1003F00030333733353331333033303330333133D7
:100400003033383335333136300D0A3A313030310C
:1004100037303030333033303330333133303434BD
:10042000343630443041334133313330333033307C
:100430003338333038410D0A3A31303031383030CA
:100440003033303330333034343332343533303387
:100450003033313330333034363332343533303374
:100460003031360D0A3A31303031393030303331B5
:100470003330333133313332343533303330333159
:100480003330333133333332343533303330323940
:100490000D0A3A313030314130303033313330337E
:1004A00033333830443041334133313330333033F8
:1004B000303339333033303330333137370D0A3A54
:1004C00031303031423030303335333234353330FF
:1004D00033303331333033313337333234353330F3
:1004E000333033313330333130310D0A3A3130303B
:1004F00031433030303339333234353330333033C5
:1005000031333033313432333234353330333033C6
:10051000313330333045330D0A3A313030314430E5
:10052000303033383044304133413331333033307D
:100530003330343133303330333034363335333095
:10054000343131380D0A3A313030314530303033C2
:100550003033303331333034363436333034313372
:100560003033303331333033323331333234354258
:10057000360D0A3A31303031463030303330333096
:100580003331333033323333333234353330333045
:1005900033313330333633383044304131430D0A50
:1005A0003A31303032303030303341333133303320
:1005B0003033303432333033303330333233353319
:1005C00032343533303330333142320D0A3A313040
:1005D00030323130303033303332333733323435F8
:1005E00033303330333133303332333933323435DF
:1005F00033303330333139410D0A3A313030323211
:1006000030303033303332343233323435333033C8
:100610003033313330343133383044304133413387
:1006200031333043370D0A3A3130303233303030E5
:100630003330333034333330333033303332343497
:100640003332343533303330333133303332343680
:1006500036350D0A3A3130303234303030333234BE
:10066000353330333033313330333933353331335D
:100670003033303330333133303333333338300D7C
:100680000A3A31303032353030303332343533306D
:10069000333033313330333333323044304133410C
:1006A0003331333033303330343441420D0A3A3150
:1006B0003030323630303033303330333033313322
:1006C0003933303432333033303331333033333302
:1006D0003733323435333035300D0A3A3130303239
:1006E00037303030333033313330333333393332E2
:1006F00034353330333033313330333334323332D3
:100700003435333032440D0A3A31303032383030FB
:100710003033303331333033383337304430413392
:100720004133313330333033303435333033303399
:100730003038370D0A3A31303032393030303333D7
:100740003434333234353330333033313330333380
:100750003436333234353330333033313330464549
:100760000D0A3A31303032413030303334333133A6
:100770003234353330333033313330333433333351
:10078000323435333033303331333031320D0A3A8D
:100790003130303242303030333133383044304110
:1007A0003341333133303330333034363330333018
:1007B000333033343335333235320D0A3A31303059
:1007C00032433030303435333033303331333033FB
:1007D00034333733323435333033303331333033ED
:1007E000343339333245360D0A3A31303032443001
:1007F00030303435333033303331333033343432D6
:1008000033323435333033303331333034353338B9
:10081000304445300D0A3A313030324530303030D6
:10082000413341333133303330333133303330338C
:10083000303330333434343332343533303330467C
:10084000390D0A3A313030324630303033313330BE
:10085000333434363332343533303330333133306C
:1008600033353331333234353330333041450D0A8B
:100870003A31303033303030303331333033353358
:100880003333323435333033303331333034323341
:1008900037304430413341333146310D0A3A31303B
:1008A0003033313030303330333033313331333033
:1008B000333033303335333533323435333033300E
:1008C00033313330333542340D0A3A31303033323C
:1008D00030303033373332343533303330333133F3
:1008E00030333533393332343533303330333133D9
:1008F00030333538330D0A3A31303033333030301D
:1009000034323332343533303330333133303338BB
:100910003337304430413341333133303330333186
:1009200043310D0A3A3130303334303030333233E2
:10093000303330333033353434333234353330338D
:100940003033313330333534363332343534380D97
:100950000A3A3130303335303030333033303331A0
:10096000333033363331333234353330333033315F
:100970003330333633333332343535440D0A3A317C
:10098000303033363030303330333033313330334E
:100990003533373044304133413331333033303302
:1009A0003133333330333042410D0A3A3130303352
:1009B000373030303330333633353332343533300B
:1009C00033303331333033363337333234353330F9
:1009D0003330333133350D0A3A313030333830303B
:1009E00030333033323339333034323330333033E1
:1009F00031333033363432333234353330333033CD
:100A00003131460D0A3A31303033393030303330FD
:100A10003338343130443041334133313330333083
:100A20003331333433303330333033363434363398
:100A30000D0A3A31303033413030303332343533CF
:100A40003033303331333033363436333234353378
:100A5000303330333133303337333146390D0A3A9E
:100A6000313030334230303033323435333033305C
:100A7000333133303337333333323435333033304B
:100A8000333133303436333745360D0A3A3130306E
:100A900033433030303044304133413331333033FD
:100AA000303331333533303330333033373335331C
:100AB000323435333034320D0A3A31303033443049
:100AC00030303330333133303337333733323435FA
:100AD00033303330333133303337333933323435E5
:100AE000333043460D0A3A313030334530303033FD
:100AF00030333133303337343233323435333033CB
:100B00003033313330343333373044304133413094
:100B1000300D0A3A313030334630303033313330F3
:100B2000333033313336333033303330333734349A
:100B300033323435333033303331333043320D0ACE
:100B40003A31303034303030303337343633323479
:100B5000353330333033313330333833313332346B
:100B600035333033303331333039360D0A3A3130A2
:100B7000303431303030333833333332343533304E
:100B8000333033313330333933373044304133410C
:100B900033313330333045370D0A3A313030343267
:100BA0003030303331333733303330333033383320
:100BB0003533323435333033303331333033383307
:100BC00037333238450D0A3A313030343330303033
:100BD00034353330333033313330333833393332E3
:100BE00034353330333033313330333834323332D9
:100BF00036310D0A3A313030343430303034353318
:100C0000303330333133303336333730443041339F
:100C10004133313330333033313338333042450DA3
:100C20000A3A3130303435303030333033303338C5
:100C30003434333234353330333033313330333886
:100C40003436333234353330333033330D0A3A31BE
:100C50003030343630303033313330333933313370
:100C60003234353330333033313330333933333357
:100C70003234353330333034360D0A3A3130303493
:100C80003730303033313330333333373044304121
:100C90003341333133303330333133393330333020
:100CA0003330333939430D0A3A313030343830304B
:100CB000303335333234353330333033313330330E
:100CC00039333733323435333033303331333033F3
:100CD0003931450D0A3A313030343930303033391A
:100CE00033323435333033303331333033393432D7
:100CF00033323435333033303331333033303038CE
:100D00000D0A3A31303034413030303337304430EE
:100D10004133413331333033303331343133303395
:100D2000303330343133353331333035410D0A3AD5
:100D3000313030344230303033303330333133308F
:100D40003339343633323435333033303331333072
:100D5000343133313332343544420D0A3A31303094
:100D60003443303030333033303331333034313357
:100D70003333323435333033303331333034353448
:100D8000343044304131460D0A3A31303034443049
:100D90003030334133313330333033313432333028
:100DA000333033303431333533323435333033301C
:100DB000333144300D0A3A3130303445303030333D
:100DC00030343133373332343533303330333133F9
:100DD00030343133393332343533303330333141D9
:100DE000410D0A3A3130303446303030333034310E
:100DF00034323332343533303330333133303431CD
:100E000033373044304133413331333045370D0AC5
:100E10003A313030353030303033303331343333B1
:100E2000303330333034313434333234353330339B
:100E300030333133303431343637330D0A3A3130D0
:100E40003035313030303332343533303330333184
:100E5000333034323331333234353330333033316D
:100E600033303432333338330D0A3A31303035329F
:100E70003030303332343533303330333133303354
:100E8000373337304430413341333133303330330B
:100E900031343443450D0A3A313030353330303057
:100EA000333033303330333033333334333833301B
:100EB00033343334343233383333333433323330FE
:100EC00038310D0A3A313030353430303033323445
:100ED00034333033303333333434323330333334E8
:100EE0003233313331333833343337333734420DDF
:100EF0000A3A3130303535303030333033343337EF
:100F0000343433363044304133413331333033308D
:100F10003331343533303330333039450D0A3A31DB
:100F2000303035363030303432333033303337339D
:100F3000303330333233303432333033303337338D
:100F40003033303332333035350D0A3A31303035C5
:100F50003730303033303330333033303330333078
:100F60003330333033303335333433383330333652
:100F70003334343234450D0A3A313030353830307C
:100F80003034333333304430413341333133303311
:100F9000303331343633303330333033313432332D
:100FA0003136380D0A3A313030353930303034315D
:100FB00034343339333034363330333134353432FA
:100FC00034313333333033313334333933314343D2
:100FD0000D0A3A3130303541303030333033303330
:100FE00032343433303330333333343432333033D8
:100FF000333432333133323335304432320D0A3AFE
:10100000313030354230303030413341333133309C
:1010100033303332333033303330333033313338AD
:10102000333433373337333033390D0A3A313030D4
:101030003543303030333433373432333033303378
:10104000373330333033323330343233303330337C
:10105000373330333045430D0A3A31303035443080
:101060003030333233303330333033303330333069
:101070003330333033303332343130443041334124
:10108000333134340D0A3A31303035453030303375
:101090003033303332333133303330333033313334
:1010A00030343233353330333633343433333244FF
:1010B000310D0A3A31303035463030303333333742
:1010C00033383334333334323339343634363436D8
:1010D00033373434343134363436333032440D0A15
:1010E0003A313030363030303033343334343233D8
:1010F00031333334323331333434353044304133A7
:1011000041333133303330333244430D0A3A3130D6
:1011100030363130303033323330333033303330B7
:101120003334333433383431343634363333333084
:1011300033303338333038300D0A3A3130303632CC
:10114000303030333033313332333333323333337F
:101150003733303331333034323434343233303364
:1011600030333737380D0A3A31303036333030309B
:101170003330333033323330333033353044304131
:101180003341333133303330333233333330333030
:1011900045430D0A3A313030363430303033303355
:1011A0003033303330333033303330333033303426
:1011B0003634333431333033303330333136460D17
:1011C0000A3A31303036353030303330333033381E
:1011D00034323335333033353334343233313432DF
:1011E0003432333133303335333433310D0A3A311D
:1011F00030303636303030333934353432304430B4
:10120000413341333133303330333233343330339D
:101210003033303330333538440D0A3A31303036DC
:101220003730303033343338343134363436333386
:101230003330333033383330343234343435333878
:101240003330333844420D0A3A313030363830309A
:101250003033343330343634363436333734333451
:10126000363432343633303330343234363330344B
:101270003638450D0A3A3130303639303030304466
:10128000304133413331333033303332333533301F
:10129000333033303330333033303330333039312F
:1012A0000D0A3A313030364130303033303330335C
:1012B0003034323334333033373330333033323306
:1012C000303436343334313330333046310D0A3A2A
:1012D00031303036423030303330333133303336E2
:1012E00033313432333133333338343233353331CD
:1012F000333830443041334133330D0A3A313030E2
:1013000036433030303331333033303332333633A9
:1013100030333033303330333433343336333034A6
:10132000343334333646350D0A3A313030364430B2
:101330003030343334323336333833353333343278
:101340003331333134323336333833353432343267
:10135000333138310D0A3A313030364530303033A0
:10136000393338333433373331333034323339333C
:10137000383333304430413341333133303330301C
:10138000350D0A3A3130303646303030333233376B
:10139000333033303330333233333336333834351C
:1013A00034313336333834343431333637460D0A3A
:1013B0003A31303037303030303330333333383403
:1013C00032343433363436343633303331333533E4
:1013D00030333033373330333437350D0A3A313028
:1013E00030373130303033373336343634363330CB
:1013F0003435333830443041334133313330333096
:1014000033323338333042370D0A3A3130303732E5
:1014100030303033303330333133353330333034B0
:101420003633383435333733363436343633303375
:1014300035333734420D0A3A3130303733303030BB
:101440003330333034363335343533373333333068
:10145000343233313330333834323335343333325A
:1014600033380D0A3A313030373430303033363398
:101470003833323330304430413341333133303319
:101480003033323339333033303330333243410D3C
:101490000A3A31303037353030303431343233314C
:1014A0003339333233363338333333323432333102
:1014B0003339333033343337333033300D0A3A3144
:1014C00030303736303030333834323434333033F0
:1014D00030333233303337333033343337333634D9
:1014E0003634363330343430310D0A3A3130303717
:1014F000373030303334304430413341333133309E
:1015000033303332343133303330333033313335B9
:101510003330333039410D0A3A31303037383030DA
:101520003034363339343533373336343634363372
:101530003033353337333033303436333634353374
:101540003742380D0A3A31303037393030303333A2
:10155000333034323331333033383432333534335B
:101560003332333633383436343530443041314613
:101570000D0A3A3130303741303030334133313376
:10158000303330333234323330333033303332343B
:10159000313432333134343332333645380D0A3A4C
:1015A0003130303742303030333833333332343205
:1015B00033313339333033343337333033383432F3
:1015C000343433303330333244350D0A3A3130302D
:1015D00037433030303330333733303334333733CD
:1015E00036343634363330333733343044304133A5
:1015F000413331333031380D0A3A313030374430ED
:1016000030303330333234333330333033303331BE
:10161000333533303330343633393435333733368A
:10162000343641370D0A3A313030374530303034B6
:101630003633303335333733303330343633363472
:101640003533373333333034323331333033383961
:10165000310D0A3A3130303746303030343233359C
:101660003433333233363338343434353044304124
:1016700033413331333033303332343442450D0A61
:101680003A3130303830303030333033303330333B
:101690003234313432333133313332333633393318
:1016A00033333234323331333938460D0A3A31303C
:1016B00030383130303033303334333733303338FF
:1016C00034323434333033303332333033373330F1
:1016D00033343337333638350D0A3A313030383217
:1016E00030303034363436333033313333304430C5
:1016F00041334133313330333033323435333033A7
:1017000030333042460D0A3A3130303833303030E1
:10171000333133353330333034363339343533378E
:101720003336343634363330333533373330333081
:1017300033390D0A3A3130303834303030343633C2
:101740003634353337333333303432333133303367
:101750003834323335343333323336333831380D6D
:101760000A3A313030383530303034323435304464
:101770003041334133313330333033323436333028
:101780003330333033323431343237320D0A3A3178
:10179000303038363030303331333933323336331A
:1017A0003933333332343233313339333033343302
:1017B0003733303338343232370D0A3A313030383B
:1017C00037303030343433303330333233303337F2
:1017D00033303334333733363436343633303337CB
:1017E0003333304433370D0A3A3130303838303003
:1017F00030304133413331333033303333333033AE
:1018000030333033303331333533303330343633B3
:101810003935420D0A3A31303038393030303435CC
:101820003337333634363436333033353337333079
:101830003330343633363435333733303330433660
:101840000D0A3A31303038413030303330333033B4
:10185000333338343233353330333433343336334F
:10186000323435304430413341333133460D0A3A56
:10187000313030384230303033303330333333313D
:101880003330333033303331333833323331333034
:10189000333133323330333032350D0A3A31303070
:1018A00038433030303331343633303335343334F9
:1018B00036343333383338343233313330333533ED
:1018C000343336333039450D0A3A3130303844300C
:1018D00030303331343633303333333834363436D2
:1018E00033383435304430413341333133303330A1
:1018F000333345380D0A3A313030384530303033E3
:1019000032333033303330333033303332333033BB
:101910003233383337333133323333333633384479
:10192000460D0A3A313030384630303034313432B6
:101930003336333033363333333633383435343269
:1019400033363330343533333336333836350D0AA6
:101950003A3130303930303030333234323336335C
:101960003133393331304430413341333133303323
:1019700030333333333330333046410D0A3A31306C
:10198000303931303030333033323333333633392A
:10199000333634323336333133323332333633380D
:1019A00033303333333438420D0A3A313030393240
:1019B00030303034323334333334363338333233F7
:1019C00032333533303333333834323434333634DE
:1019D00036343632340D0A3A313030393330303023
:1019E00033303338343330443041334133313330A2
:1019F00033303333333433303330333033303432C5
:101A000043310D0A3A3130303934303030333033ED
:101A1000303436343234353337343334333330338F
:101A20003733303330333233303334333132460DA1
:101A30000A3A3130303935303030343233333333A1
:101A4000333834323335333033353334333633305F
:101A50003433333433363334343631410D0A3A318A
:101A60003030393630303030443041334133313327
:101A70003033303333333533303330333034333441
:101A80003233363338333338370D0A3A3130303960
:101A9000373030303333343233333331343233361A
:101AA0003338333334323432333333303432333601
:101AB0003338333046340D0A3A313030393830302B
:101AC00030333433323432333233373434333833DF
:101AD00031333533343431333133333044304133BF
:101AE0004134410D0A3A31303039393030303331F8
:101AF00033303330333333363330333033303335C0
:101B000033323436333833323333333333303230A5
:101B10000D0A3A31303039413030303431333334DA
:101B2000323331343533333336333833313432337F
:101B3000363338333233313334333643430D0A3A94
:101B40003130303942303030333233383334333659
:101B5000333933383334333733313431304430412F
:101B6000334133313330333033330D0A3A3130308F
:101B7000394330303033333337333033303330332D
:101B80003633383432333933323331333633383312
:101B9000323432333643390D0A3A31303039443039
:101BA0003030333833303436333434313335333204
:101BB00034363338333233313332333033313431F6
:101BC000333641320D0A3A31303039453030303316
:101BD00030333234323336333833343436304430C1
:101BE000413341333133303330333333383330469C
:101BF000450D0A3A313030394630303033303330E9
:101C00003331343133363338333133333337333997
:101C100033303331333333333331333342380D0AD6
:101C20003A31303041303030303337333133323481
:101C30003233363338343533323336333833313464
:101C400031333633313333333837330D0A3A3130A9
:101C50003041313030303432343433353431304443
:101C60003041334133313330333033333339333030
:101C700033303330333043430D0A3A313030413260
:101C80003030303338333433363436343634363318
:101C9000373432343234363436333033303332330F
:101CA00038343546430D0A3A313030413330303024
:101CB00033353434333034363338343533373336E0
:101CC00034363436333033313335333033303332E6
:101CD00032390D0A3A313030413430303034363018
:101CE00044304133413331333033303333343133A3
:101CF0003033303330333733303334333741380DCA
:101D00000A3A3130304135303030333634363436BB
:101D10003330333133353330333034363332343596
:101D20003337333634363436333046380D0A3A31A9
:101D30003030413630303033353337333033303470
:101D4000353436343533373336343634363330334E
:101D50003534353044304133300D0A3A313030417A
:101D60003730303033413331333033303333343242
:101D7000333033303330333133353330333034353F
:101D80003433343531330D0A3A3130304138303064
:101D90003033373433343333303337333033303315
:101DA0003233303333333834323335333033353301
:101DB0003430350D0A3A3130304139303030333635
:101DC00033303432333434323335333334363338DA
:101DD0003338333930443041334133313330324694
:101DE0000D0A3A3130304141303030333033333402
:101DF00033333033303330333233303334333033C2
:101E0000323333333733393330343230330D0A3AE7
:101E1000313030414230303034323331333033318D
:101E20003333343233323333333733313332333382
:101E3000333733393330333345380D0A3A313030A4
:101E40004143303030343233313333333834323449
:101E5000343336333030443041334133313330332F
:101E6000303333343430330D0A3A3130304144307A
:101E7000303033303330333033323330333633383D
:101E8000333033313436333034353330343634351F
:101E9000333041460D0A3A3130304145303030332D
:101EA00030333234333436333934343330333233FD
:101EB00030333433363330333134363330343638EC
:101EC000350D0A3A31303041463030303433343613
:101ED00034323338333330443041334133313330AB
:101EE00033303333343533303330333044360D0A06
:101EF0003A313030423030303033303332333434B2
:101F000032333033303332333233343333343633A5
:101F100038333233353332333039420D0A3A3130C7
:101F2000304231303030343633313435333733307A
:101F30003330343234363433343333303337333070
:101F400033303332333034420D0A3A31303042329A
:101F5000303030333933343044304133413331332E
:101F60003033303333343633303330333033373348
:101F700030343243340D0A3A31303042333030306D
:101F80003331333133303432333533303334333427
:101F90003336333033333336333933363432343205
:101FA00035320D0A3A31303042343030303331334B
:101FB00030333333363338333133333432333133F0
:101FC0003933383336333833313336304437390DDB
:101FD0000A3A3130304235303030304133413331DC
:101FE00033303330333433303330333033303436CE
:101FF0003436343633373434343133450D0A3A31DC
:102000003030423630303034363436333233333396
:10201000363339343434323336333833343333347B
:102020003233313332333046350D0A3A31303042B3
:102030003730303033343336333933383334333761
:102040003331333034323434333433383044304144
:102050003341333135410D0A3A3130304238303076
:102060003033303330333433313330333033303353
:10207000363436343633303331333533303330332E
:102080003732310D0A3A3130304239303030333066
:102090003334333733363436343633303331333503
:1020A00033303330343633383435333733364432E3
:1020B0000D0A3A3130304241303030343634363324
:1020C00030333533373330333034313338304430D4
:1020D000413341333133303330333432450D0A3AF2
:1020E00031303042423030303332333033303330BD
:1020F0003436333534353337333234343435333999
:10210000343633303334333141440D0A3A313030D0
:102110004243303030343433383432333133303476
:102120003633343336333133363334333633313474
:10213000343334333641360D0A3A3130304244308C
:102140003030333033343334333634333332304455
:102150003041334133313330333033343333333040
:10216000333032390D0A3A31303042453030303375
:102170003033303330333633393433333034323331
:102180003133343333333633383433343234323812
:10219000340D0A3A31303042463030303331333248
:1021A00033333336333833313338333633383330EF
:1021B00033313436333034313339343638330D0A31
:1021C0003A313030433030303034353331333830D9
:1021D00044304133413331333033303334333433AB
:1021E00030333033303332333346370D0A3A3130FF
:1021F000304331303030333633393434333334369E
:102200003338333033343338333033323432333499
:1022100033363333333236310D0A3A3130304332CC
:102220003030303334333633333339333433363379
:10223000323330333433363433333033343337346A
:1022400036343335310D0A3A3130304333303030A3
:10225000304430413341333133303330333433352C
:102260003330333033303330333533343336333245
:1022700044380D0A3A313030433430303033333360
:10228000363338333133383336333833303331340F
:102290003633303339343434363435333231420D19
:1022A0000A3A313030433530303033383334333616
:1022B00034323434343533383436333033383331E0
:1022C0003333333630443041334135360D0A3A31F9
:1022D00030304336303030333133303330333433D1
:1022E00036333033303330333634363436333033BC
:1022F0003133353330333533430D0A3A31303043DF
:10230000373030303436333934353337333634368A
:102310003436333033313335333033353436333686
:102320003435333743340D0A3A31303043383030A6
:102330003033363436343633303335333733303365
:10234000353332333230443041334133313330333B
:102350003035420D0A3A3130304339303030333481
:102360003337333033303330343633333435333737
:10237000333234343435333934363330333443360E
:102380000D0A3A3130304341303030333134343358
:102390003834323331333034363334333633313307
:1023A000363334333633313434333443410D0A3A1F
:1023B00031303043423030303336333033343334DD
:1023C00033363337333430443041334133313330B3
:1023D000333033343338333034370D0A3A31303018
:1023E00043433030303330333033303330333633AF
:1023F00039343333303432333133383333333633A3
:10240000383433343242310D0A3A313030434430BB
:10241000303034323331333233333336333833318F
:10242000333833363338333033313436333033386E
:10243000333142370D0A3A31303043453030303491
:102440003634353432333030443041334133313334
:102450003033303334333933303330333033324642
:10246000360D0A3A3130304346303030333333366C
:102470003339343433333436333833303338333814
:1024800033303332343233343336333337430D0A57
:102490003A31303044303030303332333433363305
:1024A00033333933343336333233303334333634F1
:1024B00033333033343337343138360D0A3A313030
:1024C00030443130303033383044304133413331AF
:1024D00033303330333434313330333033303330DE
:1024E00033353334333645350D0A3A3130304432E2
:1024F00030303033323333333633383331333833AB
:102500003633383330333134363330333733353490
:1025100036343534420D0A3A3130304433303030BD
:102520003332333833343336343234343435333869
:10253000343633303338333133303435304430414E
:1025400037310D0A3A313030443430303033413392
:10255000313330333033343432333033303330335B
:102560003634363436333033313335333034410D4D
:102570000A3A31303044353030303335343633393F
:10258000343533373336343634363330333133350C
:102590003330333534363336343545350D0A3A3138
:1025A00030304436303030333733363436343633E7
:1025B00030333533373330333534343332304430DD
:1025C0004133413331333036310D0A3A3130304402
:1025D00037303030333033343433333033303330DA
:1025E00034363333343533373338333134323331AF
:1025F0003333333830300D0A3A31303044383030EC
:10260000303432333533303334333433363330349B
:102610003433343336333434323336333833373378
:102620003346320D0A3A31303044393030303432AA
:102630003331333134323336333833333433304457
:102640003041334133313330333033343434324634
:102650000D0A3A313030444130303033303330338A
:10266000303337343234323331333933383334332F
:10267000373333333034323339333244420D0A3A4C
:1026800031303044423030303332333633383339FE
:102690003333333633383330333133333333333901
:1026A000333333363330333245450D0A3A31303027
:1026B00044433030303333333633383436333130CB
:1026C00044304133413331333033303334343533B4
:1026D000303330333032300D0A3A31303044443008
:1026E00030303336343133363338333534313336B2
:1026F000333033333338343234343336343634369B
:10270000333036460D0A3A313030444530303033BC
:102710003133353330333033373330333433373389
:102720003634363436333033313335333033304268
:10273000330D0A3A3130304446303030343534339A
:102740003044304133413331333033303334343635
:1027500033303330333034363338343542430D0A76
:102760003A31303045303030303337333634363428
:102770003633303335333733303330343633353422
:1027800035333733353338343234370D0A3A313054
:102790003045313030303331333433313336333800
:1027A00033363331343233313330333834323335F6
:1027B00033303431304439370D0A3A313030453214
:1027C00030303030413341333133303330333533CF
:1027D00030333033303330333834323336343133CE
:1027E00036333339450D0A3A3130304533303030E5
:1027F00034323331333833333336333833303331A3
:102800003333343233383333333633303335343291
:1028100034380D0A3A3130304534303030343233C8
:10282000393338343233363431333933383334335F
:102830003734363330304430413341333136320D62
:102840000A3A31303045353030303330333033357B
:10285000333133303330333033303338343234344F
:102860003336343634363330333132420D0A3A316E
:102870003030453630303033353330333033373322
:102880003033343337333634363436333033313310
:102890003533303330333732430D0A3A3130304537
:1028A00037303030333033343337333634363436F0
:1028B00033303336333130443041334133313330C8
:1028C0003330333536370D0A3A3130304538303011
:1028D00030333233303330333033353337333033D2
:1028E00030343633353435333733303330333233B5
:1028F0003031420D0A3A31303045393030303436DB
:102900003333343533373334333034323331333097
:102910003333333433363334333033363338453767
:102920000D0A3A31303045413030303334333034B1
:102930003233313433343230443041334133313344
:10294000303330333533333330333033430D0A3A99
:10295000313030454230303033303331333034323F
:102960003335333433343336333833343334343229
:10297000333133313338333444430D0A3A31303054
:1029800045433030303336343133303334333733FA
:102990003133303432343433363436343633303302
:1029A000313335333041310D0A3A3130304544301E
:1029B00030303330343334363044304133413331C6
:1029C00033303330333533343330333033303337DF
:1029D000333031370D0A3A313030454530303033FD
:1029E00034333733363436343633303331333533AA
:1029F000303330333733303334333733363436399A
:102A0000310D0A3A313030454630303034363330CB
:102A10003335333733303330343633353435333779
:102A200033343330343233313334333637380D0ABC
:102A30003A31303046303030303044304133413339
:102A40003133303330333533353330333033303363
:102A500030333333343336333430340D0A3A313093
:102A6000304631303030333033363338333433302E
:102A70003432333133313330343233353338333425
:102A800033363338333437360D0A3A313030463244
:102A9000303030333434323331333133383334330C
:102AA00036343133303334333734333435304430E3
:102AB00041334139320D0A3A31303046333030300B
:102AC00033313330333033353336333033303330E2
:102AD00033313330343234343336343634363330C1
:102AE00034430D0A3A3130304634303030333133EC
:102AF00035333033303337333033343337333634A0
:102B00003634363330333133353330333035310DBD
:102B10000A3A3130304635303030333733303334A1
:102B20003337333634363436333033303339304458
:102B30003041334133313330333038320D0A3A319A
:102B4000303046363030303335333733303330334E
:102B5000303335333733303330343633353435333F
:102B60003733333330343231440D0A3A3130304662
:102B70003730303033313330333834323335333427
:102B8000333233363338333333323432333133390B
:102B90003332333631340D0A3A3130304638303042
:102BA00030333933333431343233313333333730F4
:102BB00044304133413331333033303335333833BC
:102BC0003035380D0A3A3130304639303030333014
:102BD00033303339333033343337333033383432BE
:102BE0003434333634363436333033313335443796
:102BF0000D0A3A31303046413030303330333033E3
:102C00003733303334333733363436343633303386
:102C1000313335333033303436333844390D0A3AB2
:102C2000313030464230303034353337333533315C
:102C3000304430413341333133303330333533393D
:102C4000333033303330333633390D0A3A313030A4
:102C5000464330303034363436333033353337331F
:102C6000303330343633353435333733333330342F
:102C7000323331333039430D0A3A31303046443043
:102C8000303033383432333533343332333633380B
:102C900033333332343233313434333233363339FD
:102CA000333639420D0A3A31303046453030303310
:102CB00033304430413341333133303330333534C2
:102CC00031333033303330333334313432333146CF
:102CD000460D0A3A313030464630303033393330E1
:102CE00033343337333033383432343433363436A4
:102CF00034363330333133353330333037370D0AF0
:102D00003A313031303030303033373330333433A0
:102D1000373336343634363330333133353330337A
:102D200030333233353044304144380D0A3A313093
:102D3000313031303030334133313330333033356B
:102D4000343233303330333034363338343533374C
:102D500033363436343634320D0A3A31303130328B
:102D6000303030333033353337333033303436333B
:102D70003534353337333333383432333533303316
:102D800034333435330D0A3A31303130333030306A
:102D9000333633313433333233313330333133320A
:102DA00033303333333530443041334133313330D2
:102DB00043360D0A3A31303130343030303330332D
:102DC00035343333303330333033303331343633DA
:102DD0003033303336343634323431333832410DD7
:102DE0000A3A3130313035303030343233313330EB
:102DF000333533343336333033313436333034359E
:102E00003332343634343330333031360D0A3A31DC
:102E10003031303630303033323330333233383390
:102E2000373331333034333044304133413331334D
:102E30003033303335343437450D0A3A31303130A0
:102E4000373030303330333033303332333333365E
:102E50003338343134323336333033363333333638
:102E60003338343530380D0A3A313031303830307B
:102E7000303432333633303336333333373431331F
:102E8000323432333733343431333333373431330C
:102E90003644360D0A3A3130313039303030343240
:102EA00033373334343633373044304133413331C0
:102EB00033303330333534353330333033303341DE
:102EC0000D0A3A313031304130303034353333331C
:102ED00036333833363432333633313431333333B7
:102EE000363339343134323336333141450D0A3AD1
:102EF00031303130423030303332333233363338A0
:102F00003330333333343432333433333436333889
:102F1000333233323335333044370D0A3A313031BE
:102F20003043303030333533373044304133413340
:102F3000313330333033353436333033303330336C
:102F4000333338343231410D0A3A31303130443084
:102F50003030343433363436343633303330343240
:102F6000333033303436343234353337343533302C
:102F7000333035460D0A3A31303130453030303358
:102F8000373330333033323330333033303332331E
:102F900039333333373434333033383333304445D3
:102FA000360D0A3A3130313046303030304133411D
:102FB00033313330333033363330333033303330F2
:102FC00033333338343233353330333544450D0AF7
:102FD0003A313031313030303033343336333034CD
:102FE00033333433363433343233363338333033A7
:102FF00030333234323333333536390D0A3A3130E7
:10300000313131303030343433303331343233369F
:10301000333833303330333234323334343630446F
:1030200030413341333141410D0A3A31303131328F
:103030003030303330333033363331333033303374
:103040003033333335343433303330343233363352
:1030500038333037430D0A3A313031313330303084
:103060003338333234323333333534343338333125
:103070003433333434313335333234363338333216
:1030800031460D0A3A313031313430303033333358
:103090003333303330333334323333333633393000
:1030A0004430413341333133303330333641410DD5
:1030B0000A3A313031313530303033323330333019
:1030C00033303435333333363338333134323336C7
:1030D0003338333233313334333633390D0A3A31FE
:1030E00030313136303030333233383334333633B5
:1030F000393338333433373330333233343336348F
:103100003233383432333930450D0A3A31303131C7
:10311000373030303332333033363338333033377F
:10312000304430413341333133303330333633334D
:103130003330333038440D0A3A31303131383030A1
:10314000303330333234323336333833313336334D
:103150003433393335333134363338333233303333
:103160003130320D0A3A313031313930303033308C
:103170003331333933363330333234323336333814
:1031800033313339333633383330343233374543E0
:103190000D0A3A3130313141303030333933333444
:1031A00035304430413341333133303330333633CB
:1031B000343330333033303330333135310D0A3A34
:1031C00031303131423030303333333333303432D5
:1031D00033373331333234323336333834353331B5
:1031E000333633383331333942460D0A3A313031D0
:1031F0003143303030333633313332343233363397
:103200003834353331333633393331333933363378
:10321000323334343341380D0A3A313031314430AD
:103220003030304430413341333133303330333652
:10323000333533303330333033323432333633385E
:10324000333131460D0A3A31303131453030303387
:10325000343333333333313330333333343339333B
:10326000343435333833303333333033303338421A
:10327000380D0A3A3130313146303030333334355D
:103280003338333033333330333033313330333416
:1032900033363333333930443041334146340D0A09
:1032A0003A31303132303030303331333033303303
:1032B00036333633303330333033333338343234DB
:1032C00034333033383334333638450D0A3A3130FD
:1032D00031323130303034363436343633373431BD
:1032E00033383436343633303332333433363330A4
:1032F00033303332333832410D0A3A3130313232E1
:103300003030303434333834343330343633363488
:103310003533373432333530443041334133313350
:1033200030333037440D0A3A3130313233303030B7
:103330003336333733303330333033363436343654
:103340003330333133353330333233313330333458
:1033500036320D0A3A313031323430303033363390
:10336000373330333433373336343634363330331F
:103370003133353330333234353436343530430D30
:103380000A3A313031323530303033373336343633
:1033900034363330333434333044304133413331D5
:1033A0003330333033363338333036450D0A3A3123
:1033B00030313236303030333033303335333733E9
:1033C00030333234353433343533373336343634BE
:1033D0003633303331333546340D0A3A31303132F9
:1033E00037303030333033323435333934353337A6
:1033F000333033303432343634353330333033379E
:103400003330333045450D0A3A31303132383030BF
:10341000303332333033333332304430413341335D
:103420003133303330333633393330333033303374
:103430003338330D0A3A31303132393030303338A5
:10344000343233353330333533343336333034324A
:103450003334343233353333343633383332443023
:103460000D0A3A3130313241303030333033343379
:103470003033323333333733393330343234323319
:10348000313330333133333432333845320D0A3A45
:1034900031303132423030303434304430413341D5
:1034A00033313330333033363431333033303330FB
:1034B000333233333337333133340D0A3A31303129
:1034C00032433030303332333333373339333033C0
:1034D00033343233313333333834323434333233B8
:1034E000303336333842320D0A3A313031324430DB
:1034F000303033303331343633303337333434369D
:10350000343433303330333234333335343230447F
:10351000304144460D0A3A31303132453030303393
:103520004133313330333033363432333033303368
:10353000303436333934343330333233303334414A
:10354000320D0A3A31303132463030303336333092
:103550003331343633303339333034363431333039
:1035600033323334343233303330333238370D0A78
:103570003A31303133303030303332333433333426
:10358000363338333233353332333034313331300C
:1035900044304133413331333044390D0A3A31300C
:1035A00031333130303033303336343333303330FD
:1035B00033303436333134353337333033303432DB
:1035C00034363435333034340D0A3A313031333215
:1035D00030303033303337333033303332333033CD
:1035E00037333034323331333133303432333533AF
:1035F00030333437450D0A3A3130313333303030DF
:10360000333433363330333333363339343633307F
:103610003044304133413331333033303336343456
:1036200039460D0A3A3130313334303030333033AB
:103630003033303336343234323331333033333362
:103640003633383331333334323331333934310D67
:103650000A3A31303133353030303338333633385D
:103660003436343634363337343434313436343611
:103670003332333333363339333543340D0A3A3149
:10368000303133363030303432333633393432330C
:1036900030304430413341333133303330333634DA
:1036A0003533303330333036440D0A3A313031332C
:1036B00037303030333433333432333133323330E4
:1036C00033343336333933383334333733313330BB
:1036D0003432343430340D0A3A313031333830300A
:1036E00030333634363436333033313335333033A8
:1036F000303337333033343337333634363436338C
:103700003045310D0A3A31303133393030303337CA
:103710003431304430413341333133303330333658
:103720003436333033303330333133353330353171
:103730000D0A3A31303133413030303330343633A2
:103740003834353337333634363436333033353333
:10375000373330333034363335343539350D0A3A72
:103760003130313342303030333733373330343225
:103770003335343233383432333133303435333413
:10378000333633393332304444340D0A3A31303130
:1037900033433030303041334133313330333033E1
:1037A00037333033303330333033313335333433F0
:1037B000363330333431440D0A3A3130313344300A
:1037C00030303334333633303333333633393431C6
:1037D00034323432333133353432333633383432B1
:1037E000333338310D0A3A313031334530303034EB
:1037F0003233313330333333363338333133383394
:103800003633383336343130443041334133314547
:10381000390D0A3A313031334630303033303330BD
:103820003337333133303330333033303331343670
:1038300033303333343634363434333238390D0A96
:103840003A3130313430303030333333363339334A
:10385000353432333633383332343133343336332C
:1038600033333133343336333237380D0A3A31306B
:103870003134313030303330333433363339333818
:1038800033343337333333313044304133413331E0
:1038900033303330333744390D0A3A313031343232
:1038A00030303033323330333033303330333533FC
:1038B00034333633323333333633383331333833CA
:1038C00036333838310D0A3A313031343330303014
:1038D00033303331343633303333333534363434B4
:1038E000333233383334333633373330343234349D
:1038F00032320D0A3A3130313434303030333634EC
:103900003634363330333533363044304133413357
:103910003133303330333733333330333039330DA1
:103920000A3A313031343530303033303331333599
:103930003330333534363431343533373336343647
:103940003436333033313335333030360D0A3A3193
:103950003031343630303033353436333734353334
:103960003733363436343633303335333733303318
:103970003534363334343543430D0A3A313031343B
:1039800037303030333734343331304430413341E1
:103990003331333033303337333433303330333003
:1039A0003436333836350D0A3A3130313438303028
:1039B00030343233353435333134323331333033DC
:1039C00035333433363330343333343336333434BD
:1039D0003244410D0A3A31303134393030303336E7
:1039E00033393434343234323331333034313337A1
:1039F0003338333034313332343134343337413582
:103A00000D0A3A31303134413030303044304133B6
:103A10004133313330333033373335333033303370
:103A2000303331343234343338333133450D0A3A9C
:103A3000313031344230303034323336333834354B
:103A4000333334323331333933383334333733303B
:103A5000333633343336333042350D0A3A31303170
:103A6000344330303033383432333133333330331E
:103A70003433363436333834323434333833303008
:103A8000443041334145370D0A3A31303134443006
:103A90003030333133303330333733363330333003
:103AA00033303332343233363338333633323336DD
:103AB000333943350D0A3A31303134453030303303
:103AC00035343133363331333233303337333833BF
:103AD00030343233343436333033373435343237AC
:103AE000340D0A3A313031344630303033383330E7
:103AF00033303330333033313436333033313432A2
:103B000030443041334133313330333046380D0A9D
:103B10003A3130313530303030333733373330337A
:103B20003033303330343634363434333233323366
:103B300037333833323432333636300D0A3A313097
:103B4000313531303030333833353337343633383C
:103B5000333233323332333033313431333633303E
:103B600034353435343533430D0A3A31303135325A
:103B70003030303337333634363436333033303315
:103B800031304430413341333133303330333733E4
:103B900038333042300D0A3A31303135333030303D
:103BA00033303330333133353330333634353432E8
:103BB00034353337333634363436333033313335C6
:103BC00032340D0A3A31303135343030303330331D
:103BD0003634353338343533373336343634363398
:103BE0003033313335333033363435333530340DCB
:103BF0000A3A3130313535303030343533373435B9
:103C0000343430443041334133313330333033375F
:103C10003339333033303330333636450D0A3A31A9
:103C20003031353630303034363436333033353366
:103C3000373330333634353332343533373330334A
:103C40003034323436333045320D0A3A3130313582
:103C5000373030303334333033383330333033323D
:103C60003330333733303432333534323330343227
:103C70003331333631340D0A3A3130313538303062
:103C800030333330443041334133313330333033E8
:103C900037343133303330333033303434333433FA
:103CA0003636300D0A3A3130313539303030333133
:103CB00033363334333633303334333433363334CA
:103CC0003333333633393431333334323331454699
:103CD0000D0A3A31303135413030303432333134FD
:103CE000323331333534323336333834323432349C
:103CF000323331343234363044304144410D0A3AA3
:103D0000313031354230303033413331333033307C
:103D1000333734323330333033303330333033367B
:103D2000333833303331343645320D0A3A3130319D
:103D30003543303030333034353435343634333342
:103D4000363333333633393335343233363338332D
:103D5000333332333438320D0A3A3130313544306E
:103D60003030333633323339333433363332333021
:103D700033343336333134313044304133413331ED
:103D8000333031300D0A3A3130313545303030334F
:103D900030333734333330333033303339333833EF
:103DA00034333733303335333433363332333042D0
:103DB000340D0A3A3130313546303030333633380D
:103DC00033303331343633303435333534363433BD
:103DD00033323338333433363337333036380D0AF1
:103DE0003A313031363030303034323434333634A6
:103DF0003634363330343134323044304133413369
:103E000031333033303337343438320D0A3A3130CD
:103E10003136313030303330333033303331333585
:103E20003330333534363431343533373336343652
:103E300034363330333134390D0A3A313031363299
:103E4000303030333533303335343633373435333F
:103E50003733363436343633303331333533303329
:103E600035343632340D0A3A313031363330303071
:103E700033343435333733373333304430413341DF
:103E8000333133303330333734353330333033300C
:103E900041320D0A3A313031363430303033363435
:103EA00036343633303335333733303335343633D5
:103EB0003134353337333733303432333530360DF0
:103EC0000A3A3130313635303030343233303432F2
:103ED00033313330343433343336333133363334AF
:103EE0003336333033343334333632380D0A3A31E3
:103EF0003031363630303034363337304430413379
:103F00004133313330333033373436333033303379
:103F10003033343333333637310D0A3A31303136BA
:103F20003730303033393431333334323331343263
:103F30003331343233313339343233363338343247
:103F40003432343242350D0A3A313031363830307D
:103F50003033313330333033363338333033313438
:103F6000363330343333393436343333303431301C
:103F70004430310D0A3A3130313639303030304149
:103F800033413331333033303338333033303330FF
:103F900033303336333333363339333934323241D5
:103FA0000D0A3A3130313641303030333633383320
:103FB00033333233343336333233393334333633C5
:103FC000323330333433363339333845420D0A3ADD
:103FD00031303136423030303334333733303335AB
:103FE000333433363332333033363338333134319C
:103FF000304430413341333132430D0A3A313031AC
:10400000364330303033303330333833313330337C
:10401000303330333033313436333034333330347B
:10402000363433333242430D0A3A3130313644307C
:10403000303033383334333633373330343234344A
:104040003336343634363330333133353330333539
:10405000343637380D0A3A31303136453030303465
:104060003134353337333634363436333034343311
:1040700037304430413341333133303330333842D9
:10408000360D0A3A31303136463030303332333043
:1040900033303330333133353330333534363337EF
:1040A00034353337333634363436333037320D0A1D
:1040B0003A313031373030303033313335333033DB
:1040C00035343633343435333733363436343633A7
:1040D00030333533373330333535350D0A3A3130F7
:1040E000313731303030343633313435333734359D
:1040F0003339304430413341333133303330333866
:1041000033333330333041420D0A3A3130313732B4
:104110003030303330333133303432333533303381
:104120003434363330343133373436343633303355
:1041300034333433420D0A3A313031373330303092
:104140003433343433343435333933303330333239
:10415000333333353330333134333334333334362C
:1041600032350D0A3A313031373430303033313373
:1041700038333930443041334133313330333033E5
:104180003833343330333033303330333042390D19
:104190000A3A31303137353030303330333134331F
:1041A00033343435333933303330333033313331E2
:1041B0003330343234343333333032380D0A3A3119
:1041C00030313736303030333033383330333033CA
:1041D00032333033303338343233353330333434B0
:1041E0003633303332333333310D0A3A31303137ED
:1041F0003730303030443041334133313330333075
:104200003338333533303330333034353432343679
:104210003436333034370D0A3A31303137383030B4
:104220003033383432343433303338343233353356
:10423000343436343633343337343133373333333D
:104240003042360D0A3A313031373930303033337D
:104250003436343233303330343633303330333431
:1042600034363330333134313044304133413142EC
:104270000D0A3A3130313741303030333133303359
:1042800030333833363330333033303435333334FE
:10429000363436333033383432343442380D0A3A17
:1042A00031303137423030303331343134323331E0
:1042B00033303333333633383330343233343333CB
:1042C000333033333336333044310D0A3A31303101
:1042D00037433030303337333033343337333033A0
:1042E0003333363338343433383044304133413368
:1042F000313330333031380D0A3A313031374430D0
:104300003030333833373330333033303332333384
:104310003435343133303331333033333330333376
:10432000333643320D0A3A3130313745303030338D
:10433000303337333033343337333633303432334A
:104340003133343332333633383331343633324128
:10435000310D0A3A31303137463030303431333074
:1043600034333434343333363331304430413341F1
:1043700033313330333033383338333043350D0A4B
:104380003A3130313830303030333033303330330D
:1043900033333633393331343233373431333033E6
:1043A00031333234323330333238340D0A3A31302B
:1043B00031383130303034343330333033303332DD
:1043C00033303330333833373330333733303334BB
:1043D00033373330343237460D0A3A3130313832E0
:1043E0003030303337333033393436304430413382
:1043F0004133313330333033383339333033303382
:1044000030333042460D0A3A3130313833303030B3
:10441000333033323330333733303334333733366A
:104420003436343633303331333533303330333759
:1044300035350D0A3A31303138343030303330339D
:10444000343337333634363436333033313335332F
:104450003033303337333033343337333234310D54
:104460000A3A31303138353030303432304430412E
:104470003341333133303330333834313330333008
:104480003330333533303432333138330D0A3A3147
:1044900030313836303030333433323336333833EA
:1044A00031343633323431333034313434343333DD
:1044B0003133303432333545410D0A3A31303138F9
:1044C00037303030333033303336333933303330C4
:1044D00033323334333033343337333234313336A9
:1044E0003044304137380D0A3A31303138383030C5
:1044F0003033413331333033303338343233303387
:104500003033303330333234363330343533303483
:104510003646300D0A3A31303138393030303434A3
:10452000333233303334333633313330343234345E
:104530003336343634363330333133353330433930
:104540000D0A3A313031384130303033303337337F
:104550003033343337333634363436333034313421
:10456000333044304133413331333030450D0A3A32
:104570003130313842303030333033383433333007
:104580003330333033313335333033303337333006
:10459000333433373436333844370D0A3A31303117
:1045A00038433030303432333533303330333233D4
:1045B00039333533363434333033303337333433BF
:1045C000363330343342330D0A3A313031384430E7
:1045D00030303334333633303432333633393334A6
:1045E0003434304430413341333133303330333875
:1045F000343445370D0A3A313031384530303033B4
:104600003033303330333033303332343233353388
:104610003434343330333434323336333833314155
:10462000320D0A3A31303138463030303436333298
:104630003432333533343434343333313334333246
:1046400033313330333133323330333038330D0A92
:104650003A31303139303030303331343633303331
:1046600035333530443041334133313330333033F7
:1046700038343533303330333044370D0A3A313043
:1046800031393130303033373337343633393330F2
:1046900033353334333633303330333233383335E4
:1046A00033303434333036380D0A3A313031393220
:1046B00030303033303433333233313330333133DD
:1046C00032333033303331343633303337333034C0
:1046D00036333936310D0A3A3130313933303030F2
:1046E0003335343430443041334133313330333077
:1046F0003338343633303330333033303336333489
:1047000041340D0A3A3130313934303030333633B8
:10471000303330333233383333343434343330336A
:104720003233323336333933323333333733440D64
:104730000A3A313031393530303034313330333476
:10474000333234323332343634343338343434362A
:104750003435333833353332304446460D0A3A3136
:10476000303139363030303041334133313330330A
:104770003033393330333033303330333033333414
:104780003633303330333336440D0A3A3130313931
:1047900037303030333034353330333533303435EF
:1047A00033303335333033303330333033323331E9
:1047B0003330333033300D0A3A313031393830301C
:1047C00030343533303330333233323331333233C4
:1047D000333336333833313433304430413341337B
:1047E0003135340D0A3A31303139393030303330E7
:1047F0003330333933313330333033303330333196
:10480000333234323332333434343433333346385E
:104810000D0A3A31303139413030303432343233AC
:104820003133303331333234323330333334343361
:10483000303330333033323333333045310D0A3A8D
:104840003130313942303030333434353330333035
:1048500033313332333133393337304430413341FC
:10486000333133303330333932460D0A3A31303157
:104870003943303030333233303330333034363301
:1048800035343533373331343233343432333033F3
:10489000303435333041300D0A3A3130313944301B
:1048A00030303331343233343432333333333336DC
:1048B00033303336333033363338333033313332C9
:1048C000333342380D0A3A313031394530303033E4
:1048D0003833333334333034363434304430413386
:1048E000413331333033303339333333303330467F
:1048F000300D0A3A313031394630303033303337C9
:104900003333333633303337333133373332333075
:1049100033303332333333333333333742340D0AA6
:104920003A31303141303030303332333133333358
:10493000373338343233333337333233323333333C
:1049400036333833323432333637360D0A3A313073
:10495000314131303030333033373333304430410C
:104960003341333133303330333933343330333010
:1049700033303336333345340D0A3A313031413236
:1049800030303033363338333634323336333033F5
:1049900032333333373431333234323337333233E3
:1049A00032343533390D0A3A313031413330303019
:1049B00033363331333233303336333833303332C6
:1049C00034363330333533363436343433373432A7
:1049D00032390D0A3A3130314134303030304430E0
:1049E000413341333133303330333933353330337E
:1049F0003033303332333833363339333041440D8A
:104A00000A3A313031413530303033323436333098
:104A10003338343634363434333033343334333655
:104A20003330333834323339333346320D0A3A3186
:104A30003031413630303034343336333033303344
:104A4000373435333033333330333433363338332C
:104A50003330443041334136370D0A3A3130314139
:104A6000373030303331333033303339333633301D
:104A70003330333033303331343633303333343111
:104A80003436333930430D0A3A3130314138303021
:104A900030333634363436333033313335333033E4
:104AA00034333233383334333633303331343633CE
:104AB0003045460D0A3A31303141393030303333E8
:104AC00033353436333933323330333433363436A6
:104AD0003338304430413341333133303330333382
:104AE0000D0A3A31303141413030303339333733C8
:104AF0003033303330343633383432343433363480
:104B0000363436333033303432333039450D0A3AA7
:104B1000313031414230303033343436333734354C
:104B2000333733363436343633303331333533304C
:104B3000333434363337343537420D0A3A31303175
:104B40004143303030333733363436343633303413
:104B50003333313044304133413331333033303308
:104B6000393338333046360D0A3A3130314144302A
:104B7000303033303330333133353330333434360F
:104B800033343435333733363436343633303331E7
:104B9000333538450D0A3A31303141453030303304
:104BA00030333434363331343533373336343634C6
:104BB00036333033303432333033343435343534C3
:104BC000440D0A3A313031414630303034353337D4
:104BD0003435333030443041334133313330333086
:104BE00033393339333033303330333045310D0AD4
:104BF0003A31303142303030303330333933303382
:104C00003033303334333033303330333833303380
:104C100030333033343330333042430D0A3A31309D
:104C2000314231303030333834323335333133314F
:104C30003432333134363436343633373339333231
:104C400034363436343346450D0A3A313031423247
:104C5000303030333130443041334133313330330D
:104C60003033393431333033303330333033383418
:104C700032343441410D0A3A313031423330303030
:104C800033303330333233333330333333363330FE
:104C900033313338333433363436343134353337D3
:104CA00034310D0A3A31303142343030303334331C
:104CB00038343233313331333034323335333033C7
:104CC0003433343336343233353044304138320DB6
:104CD0000A3A3130314235303030334133313330BC
:104CE00033303339343233303330333033303330A0
:104CF0003336333933303331343633390D0A3A31C0
:104D00003031423630303033303331333134363372
:104D1000393332333033343336333033313436335E
:104D20003033303435343630360D0A3A3130314292
:104D3000373030303339333033303332333033314E
:104D40003330343234343338333830443041334103
:104D50003331333036310D0A3A3130314238303068
:104D60003033303339343333303330333033363417
:104D70003634363330333133353330333033373301
:104D80003046410D0A3A3130314239303030333417
:104D900033373334333834323333343633383432D0
:104DA00033353330343333343336333033354332C1
:104DB0000D0A3A31303142413030303334333633FA
:104DC0003433333336333833303433304430413393
:104DD000413331333033303339343432340D0A3ADD
:104DE0003130314242303030333033303330333190
:104DF000343633323432333233363434343333307E
:104E0000333133323339333242440D0A3A3130319F
:104E10004243303030333734343338333033303347
:104E20003633393330333733363338333033313345
:104E3000323336333043350D0A3A31303142443063
:104E4000303033363337333233323432304430411A
:104E50003341333133303330333934353330333019
:104E6000333030320D0A3A31303142453030303350
:104E700030333234363330333433383436343433F9
:104E800036333933363338333333323334333637DA
:104E9000420D0A3A31303142463030303330333609
:104EA00034363431333033313436333133333338CD
:104EB00033343336343634363436333734320D0AFD
:104EC0003A313031433030303033323331304430A6
:104ED0004133413331333033303339343633303387
:104EE00030333033333339343643450D0A3A3130B9
:104EF000314331303030343633313433343233317E
:104F0000343233343334333233303339343433306E
:104F100033303330333234430D0A3A313031433297
:104F20003030303330333033363435333033363459
:104F30003233363338333033313332333133323343
:104F400038304438380D0A3A31303143333030305C
:104F50003041334133313330333034313330333017
:104F60003330333033393339333433303333333808
:104F700038440D0A3A313031433430303033343331
:104F800036333033323436333033313336343634EB
:104F90003433303330333233303436333832310D0A
:104FA0000A3A3130314335303030343234343336EC
:104FB00034323336333833303331333233313433C0
:104FC0003330304430413341333135460D0A3A31C4
:104FD00030314336303030333033303431333133A5
:104FE0003033303330333933393334333033333390
:104FF0003833343336333033370D0A3A31303143B6
:105000003730303033323436333033303431343675
:10501000343433303330333233303436333634355E
:105020003337333644310D0A3A313031433830307A
:105030003034363436333033313335333033303344
:105040003133353044304133413331333033303410
:105050003134390D0A3A313031433930303033325E
:105060003330333033303337333033343337333610
:1050700034363436333033313335333033304638E9
:105080000D0A3A3130314341303030343633303428
:1050900035333733363436343633303331333533D2
:1050A000303330343534343435333738350D0A3A0B
:1050B00031303143423030303335333834323333AA
:1050C000333733313044304133413331333033308F
:1050D000343133333330333032340D0A3A313031F6
:1050E0004343303030333033373330343233353379
:1050F000303433333433363330333533343336337B
:10510000343331333642460D0A3A3130314344307C
:105110003030333833313436333233393332333855
:105120003434343333303332333633393331333646
:10513000333638420D0A3A3130314345303030335E
:105140003833313336304430413341333133303307
:105150003034313334333033303330333033313033
:10516000440D0A3A31303143463030303332333235
:105170003330333234363431333033313436333103
:1051800033333330333433363436343636360D0A2F
:105190003A313031443030303034363337333034D4
:1051A00033343634363330333133323433333034CE
:1051B00031343433303331333733340D0A3A31300C
:1051C0003144313030303044304133413331333089
:1051D00033303431333533303330333033303332AE
:1051E00033323433333144330D0A3A3130314432BF
:1051F0003030303330343433303436333434323387
:105200003933363432333633383330333133323363
:1052100031333933370D0A3A31303144333030309D
:10522000333933343330333333303334333633304C
:105230003332343633303431333530443041334116
:1052400039410D0A3A313031443430303033313362
:105250003033303431333633303330333034353328
:105260003934363433333033303332333033320D34
:105270000A3A31303144353030303337333034321C
:1052800034343336343233363338333033313332E7
:105290003331333933393334333031360D0A3A311F
:1052A00030314436303030333333303334333633C7
:1052B00030333234363330333134353044304133A7
:1052C0004133313330333037360D0A3A31303144DF
:1052D00037303030343133373330333033303434A7
:1052E000343434363433333033303332333034368D
:1052F0003336343543370D0A3A31303144383030A3
:105300003033373336343233363338333033303367
:10531000323332333033313332333133393339335B
:105320003430380D0A3A313031443930303033308E
:105330003333333033343336333334313044304124
:105340003341333133303330343133383330343721
:105350000D0A3A313031444130303033303330345B
:1053600036343634363337343633303436343533F6
:10537000303330333233303435343437450D0A3A34
:1053800031303144423030303435333733363436CF
:1053900034363330333133353330333033373330E1
:1053A000333433373336343641310D0A3A31303104
:1053B000444330303034363330333033343044309B
:1053C0004133413331333033303431333933303397
:1053D000303330333131430D0A3A313031444430C7
:1053E0003030333533303330343533373435333789
:1053F000333634363436333033313335333033307B
:10540000343537390D0A3A31303144453030303394
:10541000343435333733323338343233333436334C
:10542000383432333533303436333433363335353C
:10543000410D0A3A31303144463030303337304450
:105440003041334133313330333034313431333020
:1054500033303330333033343334333645410D0A4F
:105460003A31303145303030303334333133363304
:1054700038333134363332333933323332343434EF
:1054800033333033363336333935440D0A3A31301D
:1054900031453130303033333335333633383330D0
:1054A00033313332333233303332343634313435CE
:1054B00033323044304142300D0A3A3130314532D6
:1054C00030303033413331333033303431343233B0
:1054D00030333033303330333134363331333233A9
:1054E00038333435450D0A3A3130314533303030B8
:1054F0003336343634363436333734343336343660
:105500003435333333333337343133353333343263
:1055100044360D0A3A313031453430303033393386
:105520003633333336333833303331333233313348
:105530003633363044304133413331333041300D2E
:105540000A3A31303145353030303330343134334C
:10555000333033303330333933393334333033321B
:105560003338333433363330333233320D0A3A3151
:1055700030314536303030343633303431343534F0
:1055800036343333363333333633383434333833D5
:105590003433303333333843420D0A3A31303145F6
:1055A00037303030333733303330333033323330D9
:1055B0003339333830443041334133313330333091
:1055C0003431343436310D0A3A31303145383030E7
:1055D000303330333033303436333834323434339C
:1055E0003633333336333833303331333233313388
:1055F0003945410D0A3A313031453930303033398F
:105600003334333033323338333433363330333268
:10561000343633303431343634363433333642333F
:105620000D0A3A313031454130303033333336337F
:105630003834333335304430413341333133303310
:10564000303431343533303330333032310D0A3A7F
:105650003130314542303030343433383334333004
:10566000333333383337333033303330333233300E
:10567000343633333435333742390D0A3A31303129
:1056800045433030303336343634363330333133CB
:1056900035333033303337333033343337333634D4
:1056A000363436333039360D0A3A313031454430EC
:1056B000303034333332304430413341333133309E
:1056C00033303431343633303330333033313335B3
:1056D000333046450D0A3A313031454530303033AC
:1056E000303435343434353337333033383432337F
:1056F000353330333033323330333033323436377E
:10570000340D0A3A3130314546303030333034319F
:10571000333834363433333033383432343433304E
:1057200033383432333533313338304436440D0A6C
:105730003A3130314630303030304133413331331B
:10574000303330343233303330333033303330333E
:1057500031333233303330333244350D0A3A31305D
:1057600031463130303034363330343133333436FF
:1057700034333330333834323434333033383432F2
:1057800033353330333231460D0A3A313031463217
:1057900030303033343338333033323436333033DF
:1057A00039343334363434343434333044304133A0
:1057B00041333135450D0A3A3130314633303030DE
:1057C00033303330343233313330333033303330BD
:1057D0003338343234343330333034323436333097
:1057E00033380D0A3A3130314634303030333034CA
:1057F000343330333033313334333033303338347F
:105800003233353330333233343338333034420D7E
:105810000A3A313031463530303033323436333075
:10582000333933343436343434323336304430411F
:105830003341333133303330343234360D0A3A3178
:10584000303146363030303332333033303330332A
:105850003033383432343433303330343234363316
:105860003033303435333030340D0A3A313031464C
:105870003730303033303331333433303330333802
:1058800034323335333033323334333833303332E8
:105890003436333031370D0A3A3130314638303012
:1058A00030333834333436343433393435304430AB
:1058B00041334133313330333034323333333033A7
:1058C0003031370D0A3A31303146393030303330EB
:1058D0003330333834323434333033303432343696
:1058E0003330333034363330333033313334443083
:1058F0000D0A3A31303146413030303330333033B5
:105900003834323335333034333334343233313462
:10591000323336333833303433333442310D0A3A8C
:10592000313031464230303034313331333330442A
:105930003041334133313330333034323334333028
:10594000333033303431333232310D0A3A31303181
:1059500046433030303436343233303333333233FD
:105960003333393432333033393330333133333402
:10597000323432333339320D0A3A31303146443021
:1059800030303436333133383330333734363330E4
:1059900034313434333233343436343633303334D0
:1059A000333436360D0A3A313031464530303030F6
:1059B0004430413341333133303330343233353393
:1059C000303330333034353330333233323335469D
:1059D000410D0A3A313031464630303033333336B8
:1059E0003331333033373334343234353330333288
:1059F00033313338333334363338333237370D0AB3
:105A00003A31303230303030303333333133303379
:105A10003033303332333333393333333633313455
:105A200033333730443041334144390D0A3A313051
:105A3000323031303030333133303330343233364A
:105A40003330333033303330333733323333333131
:105A500033333336333139300D0A3A313032303264
:105A60003030303330333133323330333033343419
:105A700036333033353436343634353330333834E6
:105A800032343431460D0A3A31303230333030302E
:105A900033363334333033303330333033323330E2
:105AA00033323433304430413341333133303330A7
:105AB00042440D0A3A3130323034303030343233EF
:105AC00037333033303330343433333334343433A6
:105AD0003633323331333033303330343532410DB5
