:020000041000EA
:1000000000000220399100107591001077910010C6
:10001000799100107B9100107D910010000000008C
:100020000000000000000000000000007F910010B0
:1000300081910010000000008391001055190010FC
:10004000899100108B9100108D9100108522001075
:1000500091910010492200105D22001071220010C1
:10006000999100109B9100109D9100109F9100109C
:10007000A1910010011E0010F92100100D220010A6
:10008000A9910010AB910010AD910010AF9100103C
:10009000B1910010B3910010B5910010B79100100C
:1000A000E31D0010F11D0010BD910010BF91001064
:1000B000C1910010C3910010C5910010C7910010AC
:1000C000C9910010CB91001021220010CF91001097
:1000D000151E0010D3910010D5910010D79100107B
:1000E000D9910010DB910010DD910010DF9100101C
:1000F000E1910010E3910010E5910010E7910010EC
:10010000E9910010EB910010ED910010EF910010BB
:10011000F1910010F3910010F5910010F79100108B
:10012000F9910010FB910010FD910010FF9100105B
:100130000192001003920010291E00100792001077
:10014000099200100B9200100D9200100F920010F7
:1001500011920010139200101592001017920010C7
:10016000199200101B9200101D9200101F92001097
:100170002192001023920010259200102792001067
:10018000299200102B9200102D9200102F92001037
:100190003192001033920010359200103792001007
:1001A000352200103B9200103D9200103F9200104B
:1001B00041920010439200104592001047920010A7
:1001C000499200104B9200104D9200104F92001077
:1001D0000348044B834202D0034B03B118477047D6
:1001E0006808002068080020000000000548064B51
:1001F0001B1AD90F01EBA301491002D0034B03B125
:1002000018477047680800206808002000000000B8
:1002100010B5064C237843B9FFF7DAFF044B13B14E
:100220000448AFF300800123237010BD680800204C
:10023000000000000013011008B5054B1BB1054973
:100240000548AFF30080BDE80840FFF7CFBF00BF0F
:10025000000000006C0800200013011080B596B06B
:1002600000AFF8607B600B46FB7213463B810023B6
:100270003B6107F114033C22002118460BF0E8FF14
:10028000FB681B7A002B32D1FB7A5B005BB243F038
:1002900001035BB2DBB23B74FB6858683B890133F6
:1002A0009AB207F11003194601F0F6F878657B6DF4
:1002B000002B01D07B6D37E00023A7F8523010E00F
:1002C000B7F852305A1CB7F8523079680B4458329C
:1002D0003A4412F8482C1A70B7F852300133A7F894
:1002E0005230B7F852203B899A42E9D31BE0FB68B1
:1002F000586807F10B010023012200F07BFE7865AE
:100300007B6D002B01D07B6D0EE0FB6858683B894C
:10031000DAB20123796800F0A4FE78657B6D002BCA
:1003200001D07B6D00E07B6D18465837BD4680BD1F
:1003300080B596B000AFF8607B600B46FB72134649
:100340003B8100237B6107F118033C220021184602
:100350000BF07EFF0023A7F8563010E0B7F85630B8
:100360007A681A44B7F856300133127858333B4450
:1003700003F8442CB7F856300133A7F85630B7F8D5
:1003800056203B899A42E9D3FB681B7A002B0FD198
:10039000FB7A5B00DBB23B75FB6858683B89013335
:1003A0009AB207F11403194601F076F803460FE0FC
:1003B000FB68FA7ADA72FB685868FB6803F10B0194
:1003C0003B89DBB20133DAB2012300F013FE0346AE
:1003D00018465837BD4680BD80B584B000AF786000
:1003E000084611461A460346FB700B46BB7013467F
:1003F0007B7007F10B03F97801227868FFF72EFF75
:10040000F860FB68002B01D0FB681CE0FB78262B12
:1004100002D1786800F022FC97F90230DB435AB22F
:10042000FB7A5BB213405BB2DBB2FB72FA7A7B7889
:100430001343DBB2FB7207F10B03F97801227868F2
:10044000FFF776FF034618461037BD4680BD84B0DF
:1004500080B586B000AF786007F1240080E80E0018
:100460004FF4A671012003F0D7F938613B69002BE6
:1004700002D16FF00B0399E097F84530012B0DD8AE
:1004800097F845203B691A7000BF97F844203B69F4
:100490001A723B691B7A002B10D102E06FF0150332
:1004A00084E03B69043307F124021146184600F04A
:1004B000F9FE78617B69002B0CD073E03B69043353
:1004C00007F124021146184600F0B2FC78617B69FE
:1004D000002B66D107F10F03012200213869FFF7D5
:1004E000BDFE78617B69002B3FD1FB7BAD2B3CD1FE
:1004F00007F10F03012201213869FFF7AFFE786190
:100500007B69002B33D1FB7B1D2B30D107F10F030F
:10051000012202213869FFF7A1FE78617B69002B77
:1005200027D1FB7B172B24D107F10F0301222021B8
:100530003869FFF793FE78617B69002B1BD1FB7B49
:100540005BB2002B03DA3B6900221A7002E03B69C0
:1005500001221A703B6900225A723B6900229A728A
:100560007B683A691A60002320E000BF04E000BF06
:1005700002E000BF00E000BF3B691B7A002B05D101
:100580003B695B68184600F02DFF04E03B695B683F
:10059000184600F0D7FC386903F04CF94FF0FF33F0
:1005A00004E000BF386903F045F97B691846183745
:1005B000BD46BDE8804004B0704780B584B000AF50
:1005C00078605223BB7207F10A0301222A2178685E
:1005D000FFF7AEFEF860FB68002B01D0FB6812E06D
:1005E0004FF4FA7001F0C8F907F10B030122002162
:1005F0007868FFF733FEF860FB7AAD2B02D06FF01E
:100600000A0300E0002318461037BD4680BD80B5C0
:1006100084B000AF78600B46FB70FB7819460F2062
:1006200003F082FE0346DBB20F2226217868FFF733
:10063000D3FEF860FB68002B02D17B68FA789A72CF
:10064000022001F0A4F9FB6818461037BD4680BDB2
:1006500080B584B000AF7860396007F10B030122E8
:1006600026217868FFF7FAFDF860FB68002B01D0BF
:10067000FB6810E0FB7A19460F2003F067FE034683
:10068000DAB23B681A70FB68002B03D13B681A781A
:100690007B689A72002318461037BD4680BD80B52E
:1006A00084B000AF78600B46FB70FB781946C02021
:1006B00003F03AFE0346DBB2C02226217868FFF73A
:1006C0008BFEF860FB68002B02D17B68FA785A72C7
:1006D000FB6818461037BD4680BD80B584B000AFBA
:1006E0007860396007F10B03012226217868FFF753
:1006F000B5FDF860FB68002B01D0FB6810E0FB7AC9
:100700001946C02003F022FE0346DAB23B681A7095
:10071000FB68002B03D13B681A787B685A72002370
:1007200018461037BD4680BD80B584B000AF7860F4
:10073000396007F10B03012220217868FFF78EFD55
:10074000F860FB7A5BB2002B03DA7B6801221A7037
:1007500002E07B6800221A707B681A783B681A7086
:10076000FB6818461037BD4680BD80B584B000AF29
:100770007860396007F10803042211217868FFF7D7
:100780006DFDF860FB68002B01D0FB6808E007F105
:100790000803184603F028FE02463B681A6000234F
:1007A00018461037BD4680BD80B58EB000AFF860EA
:1007B0007A603B600B46FB7200233B6200237B6246
:1007C0000023BB610023FB6100237B6300233B8686
:1007D000FB7A1946F02003F0A7FD0346DBB2F022B6
:1007E0002721F868FFF7F8FDB862BB6A002B01D03B
:1007F000BB6ACEE007F117031946F868FFF728FF38
:10080000B862BB6A002B01D0BB6AC2E0FB7D002B43
:1008100003D10C21F868FFF7FAFEFB7A87F8333032
:1008200097F8333003F00103002B03D0152387F82A
:10083000323025E097F8333003F00203002B03D069
:10084000172387F832301BE097F8333003F00403A6
:10085000002B03D0192387F8323011E01B2387F8CF
:1008600032300DE097F833309BB203F001039AB2B7
:100870003B8E13443B8697F833305B0887F8333060
:1008800097F83330002BEDD13B8E5B003B8607F1B0
:1008900020033A8E97F83210F868FFF7DFFCB86251
:1008A000BB6A002B01D0BB6A73E0FB7A87F8333058
:1008B0000023FB6235E097F8333003F00103002B8F
:1008C0001AD007F120027B6B1344197807F1180244
:1008D000FB6A13440A461A707B6B5A1CFB6A01338D
:1008E00038323A4412F8182C38333B4403F8202CA1
:1008F0007B6B02337B630CE007F11802FB6A134445
:1009000000221A70FB6A013338333B44002203F89B
:10091000202C97F833305B0887F83330FB6A0233BA
:10092000FB62FB6A072BC6DD7B68002B08D007F152
:100930001803184603F043FD03461A467B681A80E5
:100940003B68002B09D007F118030233184603F067
:1009500036FD03461A463B681A803B6C002B09D0D3
:1009600007F118030433184603F029FD03461A461D
:100970003B6C1A807B6C002B0AD007F118030633FE
:10098000184603F01CFD03461B099AB27B6C1A80C3
:10099000BB6A18463837BD4680BD000080B58AB0B6
:1009A00002AFF8607A603B600B46FB7207F11800FB
:1009B00007F11A02F97A0023019307F11603009355
:1009C0000346F868FFF7F0FEF861FB69002B01D0E1
:1009D000FB692DE07B8B1946F86800F02FF87B68E7
:1009E0000833154A03F0C5FC02460B467968C1E995
:1009F00000233B8B1946F86800F020F83B68083369
:100A00000D4A03F0B6FC02460B463968C1E90023E3
:100A1000FB8A1946F86800F011F8BB6A0833064AE9
:100A200003F0A7FC02460B46B96AC1E90023FB6943
:100A300018462037BD4680BD809698002DE9B00F3E
:100A40009BB000AFF8650B46A7F85A30B7F95A309B
:100A5000002B0BDAB7F85A204FF0FF333B663B6EA2
:100A60001B043B663B6E13437B6602E0B7F85A30CB
:100A70007B66FB6D1B78002B02D0012B79D0DCE06C
:100A80007B6EDA173B637A63FB6D5B7A1A46724BB7
:100A90009B5CDBB20022BB62FA62D7E90C452B46B5
:100AA000D7E90A89424602FB03F24B46214601FB85
:100AB00003F3134422464146A2FB01127A650A461B
:100AC0003A657A6D13447B65D7E9144522462B4677
:100AD000911839625B417B62D7E90823214651189E
:100AE000B96129464B41FB614FF000024FF0000312
:100AF000D7E9068949468B00414643EA917341464E
:100B00008A0010461946034622469B1A3B610B4653
:100B10002A4663EB02037B614FF000024FF00003B3
:100B2000D7E9048949468B00414643EA917341461F
:100B30008A0010461946034622469B1ABB600B46A4
:100B40002A4663EB0203FB604FF000024FF0000304
:100B5000D7E9024529464B01214643EAD1632146A4
:100B60004A012146511AB963294663EB0103FB632D
:100B700069E07B6EDA17BB64FA64FB6D5B7A1A4638
:100B8000354B9B5CDBB200223B647A64D7E91201EF
:100B90000B463A6C02FB03F27B6CC7E9120101467B
:100BA00001FB03F31344BA6C396CA2FB01452B44DF
:100BB0001D4622462B464FF000004FF000019900E1
:100BC00041EA9271900002460B4612EB040A43EB95
:100BD000050B4FF000024FF000034FEACB0343EA4E
:100BE0005A734FEACA0292469B46BAEB04086BEB73
:100BF00005094FF000024FF000034FEA091343EAE2
:100C000018734FEA08129046994618EB04033B60AC
:100C100049EB05037B604FF000024FF00003D7E97A
:100C200000452946CB00214643EA51732146CA00BC
:100C30001C461346C7E90E3405E06FF015034FF06C
:100C4000FF34C7E90E34D7E90E23104619466C3736
:100C5000BD46BDE8B00F7047E00A011080B584B012
:100C600000AF786007F10B03012226217868FFF7B7
:100C7000F5FAF860FB7A23F00F03DBB2FB7207F1A1
:100C80000B03012226217868FFF752FB0246FB681E
:100C90001343FB60FB68002B08D1FB7A19460F2039
:100CA00003F054FB0346DAB27B689A72FB6818467D
:100CB0001037BD4680BD80B584B000AF7860396024
:100CC0003B68002B03D03B68DB68002B02D16FF040
:100CD000150319E03B68DB681B68002B02D16FF03D
:100CE000570311E03B68DB681B68396878689847F0
:100CF000F860FB68002B01D0FB6805E07B681B688F
:100D00003A68D268DA60002318461037BD4680BDC5
:100D100080B582B000AF78607B68002B15D07B680F
:100D2000DB68002B02D16FF015030FE07B68DB68F6
:100D30009B68002B02D16FF0570307E07B68DB68EC
:100D40009B6878689847034600E0002318460837F8
:100D5000BD4680BD80B582B000AF78607B68002B57
:100D600015D07B68DB68002B02D16FF015030FE014
:100D70007B68DB68DB68002B02D16FF0570307E06C
:100D80007B68DB68DB6878689847034600E00023EF
:100D900018460837BD4680BD80B582B000AF786088
:100DA0000B46FB707B68002B17D07B68DB68002B41
:100DB00002D16FF0150311E07B68DB681B69002B23
:100DC00002D16FF0570309E07B68DB681B69FA7892
:100DD000114678689847034600E000231846083714
:100DE000BD4680BD80B582B000AF78600B46FB7019
:100DF0007B68002B17D07B68DB68002B02D16FF07B
:100E0000150311E07B68DB689B69002B02D16FF052
:100E1000570309E07B68DB689B69FA7811467868BC
:100E20009847034600E0002318460837BD4680BDBA
:100E300080B584B000AF786039603B68002B03D088
:100E40003B68DB68002B02D16FF015033FE03B6885
:100E5000DB681B68002B02D16FF0570337E03B685B
:100E60001B68042B02D96FF0150330E03B681B6848
:100E7000194A52F82330002B08D1386800F02EF8B8
:100E8000F860FB68002B01D0FB6820E03B68DB6862
:100E90001B68396878689847F860FB68002B01D0B8
:100EA000FB6814E03B681A687B681B680A4951F8C4
:100EB00022201A607B681B681B681A790132D2B243
:100EC0001A717B681B683A68D2681A610023184659
:100ED0001037BD4680BD00BF8408002080B584B0B7
:100EE00000AF78601821012002F096FCF860FB68E2
:100EF000002B02D16FF00B031DE0FB68184603F0D6
:100F0000CDF9FB6800221A717B681A68FB689A6049
:100F10007B685A68FB68DA607B68DA68FB681A618C
:100F20007B681A69FB685A617B681B680449FA6828
:100F300041F82320002318461037BD4680BD00BF6E
:100F40008408002080B582B000AF78607B68002BF9
:100F500003D07B681B69002B02D16FF0150317E0EB
:100F60007B681B68002B05D07B681B689B68184654
:100F700000F012F87B681B69DB68002B02D16FF070
:100F8000570305E07B681B69DB6878689847034670
:100F900018460837BD4680BD80B584B000AF786084
:100FA000134A7B6852F82330FB60FB681B79002BE7
:100FB00005D0FB681B79013BDAB2FB681A71FB684C
:100FC0001B79002B0FD1FB681B68184603F084F9CE
:100FD000FB68002B07D0F86802F02CFC044A7B6801
:100FE000002142F8231000BF1037BD4680BD00BF6E
:100FF0008408002090B587B000AFF860B960114652
:101000001A460B46FB711346BB71FB68002B03D0DD
:10101000FB681B69002B02D16FF015031DE0FB6814
:101020001B695B68002B02D16FF0570315E0FB686A
:101030001B681B68184603F03BF9FB681B695C687A
:10104000BB79FA79B968F868A0477861FB681B68D2
:101050001B68184603F036F97B6918461C37BD46F5
:1010600090BD90B587B000AFF860B96011461A46E0
:101070000B46FB711346BB71FB68002B03D0FB686A
:101080001B69002B02D16FF015031DE0FB681B6983
:101090009B68002B02D16FF0570315E0FB681B68BB
:1010A0001B68184603F004F9FB681B699C68BB7950
:1010B000FA79B968F868A0477861FB681B681B6813
:1010C000184603F0FFF87B6918461C37BD4690BDF3
:1010D00080B584B000AF786039603B68002B03D0E6
:1010E0003B685B68002B02D16FF015031EE03B6884
:1010F0005B681B68002B02D16FF0570316E03B685A
:101100005B681B68396878689847F860FB68002B53
:1011100001D0FB680AE07B681B689A6801329A601C
:101120007B681B683A6852685A600023184610377B
:10113000BD4680BD80B582B000AF78607B68002B73
:1011400003D07B685B68002B02D16FF0150318E0B9
:101150007B685B685B6A002B02D16FF0570310E07D
:101160007B689B685A1E7B689A607B689B68002B33
:1011700001D0002305E07B685B685B6A786898476C
:10118000034618460837BD4680BD80B584B000AF21
:10119000F860B9607A60FB68002B03D0FB685B687D
:1011A000002B02D16FF015030FE0FB685B685B68F2
:1011B000002B02D16FF0570307E0FB685B685B68A8
:1011C0007A68B968F8689847034618461037BD46EC
:1011D00080BD80B584B000AFF860B9607A60FB680C
:1011E000002B03D0FB685B68002B02D16FF0150366
:1011F0000FE0FB685B689B68002B02D16FF0570320
:1012000007E0FB685B689B687A68B968F86898478C
:10121000034618461037BD4680BD80B582B000AF8A
:10122000786039607B68002B03D07B685B68002B9B
:1012300002D16FF015030EE07B685B689B69002BA1
:1012400002D16FF0570306E07B685B689B693968E1
:1012500078689847034618460837BD4680BD80B574
:1012600082B000AF786039607B68002B03D07B6868
:101270005B68002B02D16FF015030EE07B685B68A2
:10128000DB69002B02D16FF0570306E07B685B68D7
:10129000DB69396878689847034618460837BD46C1
:1012A00080BD000080B584B000AF786039603B68D5
:1012B000002B03D03B68DB68002B02D16FF01503D5
:1012C0004DE03B68DB681B68002B02D16FF05703D1
:1012D00045E03B681B68082B02D96FF015033EE020
:1012E0003B681B68204A52F82330002B08D138682D
:1012F00000F03CF8F860FB68002B01D0FB682EE0A2
:101300003B68DB681B68396878689847F860FB6859
:10131000002B01D0FB6822E03B681A687B681B68E1
:10132000114951F822201A607B681B681B681A79E2
:101330000132D2B21A717B681B683A68D2681A61AE
:101340007B681B683A68D2691A627B681B683A68D6
:101350001433103292E8030083E803000023184698
:101360001037BD4680BD00BF9808002080B584B00E
:1013700000AF78601C21012002F04EFAF860FB6893
:10138000002B02D16FF00B0325E0FB68184602F03A
:1013900085FFFB6800221A717B681A68FB689A60F7
:1013A0007B685A68FB68DA607B685A7AFB681A7453
:1013B0007B689A7AFB685A747B68DA68FB685A61C2
:1013C0007B689A69FB689A617B681B680449FA68C4
:1013D00041F82320002318461037BD4680BD00BFCA
:1013E0009808002080B582B000AF78607B68002B41
:1013F00003D07B681B69002B02D16FF0150317E047
:101400007B681B68002B05D07B681B689B681846AF
:1014100000F012F87B681B695B69002B02D16FF04A
:10142000570305E07B681B695B697868984703464A
:1014300018460837BD4680BD80B584B000AF7860DF
:10144000144A7B6852F82330FB60FB681B79002B41
:1014500005D0FB681B79013BDAB2FB681A71FB68A7
:101460001B79002B11D1FB681B68184602F034FF72
:10147000FB68002B09D0F86802F0DCF90023FB6060
:10148000044A7B68002142F8231000BF1037BD4694
:1014900080BD00BF9808002080B586B000AFF8601E
:1014A000B9601346FB80FB68002B03D0FB681B6907
:1014B000002B02D16FF015031CE0FB681B695B6811
:1014C000002B02D16FF0570314E0FB681B681B6808
:1014D000184602F0EDFEFB681B695B68FA88B96884
:1014E000F86898477861FB681B681B68184602F02B
:1014F000E9FE7B6918461837BD4680BD80B584B0CB
:1015000000AF786039603B68002B07D03B685B69AF
:10151000002B03D03B681B780A2B02D96FF0150310
:101520002AE03B685B691B68002B02D16FF0570310
:1015300022E03B685B691B68396878689847F86007
:10154000FB68002B01D0FB6816E07B681B683A68DB
:1015500052695A613B681B789B00094A134418463C
:1015600002F09CFE3B681B7819467B681B68044AA6
:1015700052F821201A60002318461037BD4680BD5E
:10158000BC08002080B582B000AF78607B68002B7B
:1015900003D07B685B69002B02D16FF0150319E063
:1015A0007B685B695B69002B02D16FF0570311E028
:1015B0007B681B68184602F08FFE7B681B79194612
:1015C000064B002243F821207B685B695B697868E1
:1015D0009847034618460837BD4680BDBC08002022
:1015E00080B586B000AFF860B9607A60FB68002B08
:1015F00006D0FB685B69002B02D0BB68002B02D1D0
:101600006FF015031AE0FB685B695B68002B02D181
:101610006FF0570312E0FB681B68184602F048FEA3
:10162000FB685B695B687A68B968F86898477861B5
:10163000FB681B68184602F045FE7B6918461837A0
:10164000BD4680BD80B586B000AFF860B9607A60F5
:10165000FB68002B06D0FB685B69002B02D0BB68DF
:10166000002B02D16FF015031AE0FB685B699B68E1
:10167000002B02D16FF0570312E0FB681B6818467D
:1016800002F016FEFB685B699B687A68B968F868C7
:1016900098477861FB681B68184602F013FE7B6967
:1016A00018461837BD4680BD84B080B586B000AFFF
:1016B000786007F1240080E80E000023BB604FF43F
:1016C00018633B614FF0FF337B610C2002F098F808
:1016D000F860FB68002B02D14FF0FF334AE0FB6853
:1016E0001A1D07F12403203319461046FFF7E3FAC9
:1016F000FB6803F1080207F124033433194610464E
:10170000FFF7D9FAFB6807F1240211461846FFF7E4
:10171000C9FD4FF40033BB60BB6803F5CC53BB601D
:1017200007F108031946F86800F0AAF84FF402031D
:10173000BB6007F108031946F86800F0A1F8F868E3
:1017400000F0D4F80346BB60BA683B691340002B35
:1017500001D000237B61FB685B6801211846FFF71D
:101760001BFBFB689B681846FFF7F4FA7B68FA6876
:101770001A607B6918461837BD46BDE8804004B042
:10178000704780B584B000AF78607B681B681846EE
:10179000FFF728FEF8607B685B681846FFF7B8FA29
:1017A0000246FB681343FB607B689B681846FFF7A3
:1017B000AFFA0246FB681343FB60786802F03AF820
:1017C000FB6818461037BD4680BD80B584B000AFB9
:1017D000786039600023FB604FF48033FB60FA6867
:1017E0003B681344FB6007F10C031946786800F06E
:1017F00047F87B685B6800211846FFF7F3FA012081
:1018000000F0C5F87B685B6801211846FFF7EAFA2B
:1018100000BF1037BD4680BD80B584B000AF786092
:101820000023BB600023FB604FF40103BB6007F1A2
:1018300008031946786800F023F8786800F056F835
:10184000F860FB6818461037BD4680BD80B584B08F
:1018500000AF78600023BB600023FB604FF40503FA
:10186000BB6007F108031946786800F009F878684A
:1018700000F03CF8F860FB6818461037BD4680BDA4
:1018800080B584B000AF78603960174A07F10C0367
:101890001268114619800233120C1A700023FB7370
:1018A0003B681B681B14DBB23B733B681B681B1255
:1018B000DBB27B733B681B68DBB2BB737B681B6866
:1018C00007F10C0103221846FFF7E6FD0346FB7300
:1018D00097F90F30002B02D04FF0FF3300E00023C8
:1018E00018461037BD4680BDE40A011080B584B0AB
:1018F00000AF78600023FB60154A07F10803126807
:10190000114619800233120C1A700023FB727B6897
:101910001B6807F1080103221846FFF7BDFD0346C7
:10192000FB7297F90B30002B02D04FF0FF330AE027
:101930007B7A1B02FA681343FB60BB7A1A46FB688A
:101940001343FB60FB6818461037BD4680BD00BFDF
:10195000E80A0110B0B500AF05F09AF8054BD3E9DD
:101960000023541C43F10005024BC3E9004500BFAE
:10197000B0BD00BFE808002080B582B000AF78603D
:10198000786805F0AFF900BF0837BD4680BD80B567
:1019900082B000AF78607B684FF47A7202FB03F389
:1019A000184605F09FF900BF0837BD4680BD80B4DA
:1019B00085B000AFF860B9601346FB71FB79002B6E
:1019C00006D0FB681A68BB681A43FB681A6006E019
:1019D000FB681A68BB68DB431A40FB681A6000BFEB
:1019E0001437BD465DF8047B7047000080B588B0B1
:1019F00000AF786039603B68002B07D03B681B69FB
:101A0000002B03D03B685B681F2B02DD6FF01503D2
:101A10008EE01421012001F0FFFE78617B69002B2C
:101A200002D16FF00B0383E00C21012001F0F4FEE2
:101A300038613B69002B03D16FF00B03FB6173E04E
:101A40003B681B69FB603B681B7A042B15D801A21D
:101A500052F823F0691A00106F1A0010751A00105E
:101A60006F1A0010751A00100023BB6109E00123F2
:101A7000BB6106E00223BB6103E06FF01503FB616D
:101A80004FE03B681B68012B03DD6FF01503FB6122
:101A900047E03B681B68002B07D03B681B68012BA5
:101AA00001D1254B02E0002300E0244B3A6913608A
:101AB0003B685B68012202FA03F31A463B695A60ED
:101AC000BB69DAB23B695A723B6900221A72FB6841
:101AD0001A783B699A723B681A687B691A603B689E
:101AE0005A687B695A603B681A7A7B691A727B690B
:101AF0003A691A613B681B68184602F06DFE7B6903
:101B00001B69184602F084FEF861FB69002B03D0C4
:101B10006FF01503FB6104E07B687A691A600023AB
:101B200006E0386901F086FE786901F083FEFB6902
:101B300018462037BD4680BD009000400080004020
:101B400080B582B000AF786039603B68002B04D16B
:101B50007B6800221A60002304E039687868FFF788
:101B600045FF034618460837BD4680BD80B582B0A4
:101B700000AF78607B68002B02D16FF0150308E09E
:101B80007B681B69184601F055FE786801F052FE2B
:101B9000002318460837BD4680BD80B584B000AF2D
:101BA00078607B68002B03D07B685B681F2B02DDAD
:101BB0006FF0150309E07B681B69FB60FB6800227E
:101BC0001A72F86802F024FE002318461037BD464A
:101BD00080BD80B584B000AF78600B46FB707B6839
:101BE000002B06D07B685B681F2B02DCFB78012B87
:101BF00002D96FF0150330E07B681B69FB60FB685E
:101C00001B68BB60FB6801221A72F86802F000FED4
:101C10007B685B68012202FA03F301221946B86867
:101C2000FFF7C5FEFB78002B02D0012B0AD013E092
:101C30007B685B68012202FA03F31946B86802F078
:101C40006BFE09E07B685B68012202FA03F3194628
:101C5000B86802F054FE00BF002318461037BD4696
:101C600080BD80B485B000AF786039607B68002BA0
:101C700003D07B685B681F2B02DD6FF015030EE05D
:101C80007B681B69FB60FB681B7A012B03D13B68F7
:101C900001221A7002E03B6800221A7000231846E5
:101CA0001437BD465DF8047B704780B584B000AF43
:101CB00078600B46FB707B68002B03D07B685B6809
:101CC0001F2B02DD6FF015033CE07B681B69FB6096
:101CD000FB681B68BB607B685B68012202FA03F348
:101CE00001221946B868FFF762FEFB78022B1AD072
:101CF000022B23DC002B02D0012B0AD01EE07B68D4
:101D00005B68012202FA03F31946B86802F004FE88
:101D100017E07B685B68012202FA03F31946B86892
:101D200002F0EDFD0DE07B685B68012202FA03F32F
:101D300000221946B868FFF73AFE02E06FF015037B
:101D400000E0002318461037BD4680BD80B584B042
:101D500000AF786039607B68002B03D07B685B68DC
:101D60001F2B02DD6FF0150337E07B681B69FB60FA
:101D7000FB681B68BB607B685B68012202FA03F3A7
:101D800001221946B868FFF712FEFB681B7A002B88
:101D900011D17B685B68012202FA03F31946B86827
:101DA00002F09FFD02467B685B6822FA03F3DAB219
:101DB0003B681A7010E07B685B68012202FA03F34B
:101DC0001946B86802F0B5FD02467B685B6822FAE6
:101DD00003F3DAB23B681A70002318461037BD4689
:101DE00080BD80B500AF002002F0B1FD00BF80BD16
:101DF00080B500AF012002F0AAFD00BF80BD000049
:101E000080B500AF024802F067FF00BF80BD00BF91
:101E100000D0014080B500AF024802F05DFF00BF76
:101E200080BD00BF00E0014080B500AF024802F075
:101E300053FF00BF80BD00BF00F0014080B483B0FD
:101E400000AF03463960FB7197F90730002B0BDABE
:101E50003B68DAB20C49FB7903F00F03043B5201F3
:101E6000D2B20B441A7609E03B68DAB2074997F917
:101E700007305201D2B20B4483F8002300BF0C3765
:101E8000BD465DF8047B704700ED00E000E100E036
:101E900080B582B000AF78607B68013BB3F1807F92
:101EA00001D301230FE00A4A7B68013B53600721FD
:101EB0004FF0FF30FFF7C2FF054B00229A60044B42
:101EC00007221A60002318460837BD4680BD00BFB0
:101ED00010E000E080B500AF074B1B68074AA2FB8B
:101EE00003239B091846FFF7D3FF012004F0FAFEF5
:101EF0000346184680BD00BF38000020D34D621055
:101F000080B500AFFFF7E6FF0346184680BD00002E
:101F100080B483B000AF0346FB71FB7903F01F036D
:101F2000012202FA03F1064A97F907305B0942F8E9
:101F3000231000BF0C37BD465DF8047B704700BF1F
:101F400000E100E080B483B000AF0346FB71FB7991
:101F500003F01F03012202FA03F1064A97F9073042
:101F60005B09203342F8231000BF0C37BD465DF8F3
:101F7000047B704700E100E080B483B000AF03460B
:101F80003960FB7197F90730002B0BDA3B68DAB246
:101F90000C49FB7903F00F03043B5201D2B20B440E
:101FA0001A7609E03B68DAB2074997F9073052011F
:101FB000D2B20B4483F8002300BF0C37BD465DF856
:101FC000047B704700ED00E000E100E080B483B0E6
:101FD00000AF786039607B681A683B681B68D31A69
:101FE00018460C37BD465DF8047B704780B485B059
:101FF00000AF78600023FB6012E0FB68002B06D086
:10200000FB68012B01D1192302E0002300E0182313
:102010007A68934201D1012306E0FB680133FB603B
:10202000FB68012BE9D9002318461437BD465DF83B
:10203000047B704780B58AB000AF786007F1100369
:1020400000221A605A609A60DA607B68404A9342C4
:102050005BD07B683E4A934203D07B683D4A934203
:1020600051D07B683A4A934207D07B68394A934201
:1020700003D07B68384A934243D07B68344A93420A
:102080000BD07B68334A934207D07B68324A934235
:1020900003D07B68314A934231D07B682C4A93420B
:1020A0000FD07B682B4A93420BD07B682A4A93421D
:1020B00007D07B68294A934203D07B68284A934221
:1020C0001BD07B68224A934215D07B68214A9342F9
:1020D00011D07B68204A93420DD07B681F4A9342FF
:1020E00009D07B681E4A934205D07B681D4A934203
:1020F00001D10A230AE0002308E0092306E00823AF
:1021000004E0072302E0062300E005233B61164BB1
:102110007B627B6A5B6807F1100207F10C011846CD
:1021200001F0B0FE38623B6A002B0DD1FB689B6862
:10213000002B05D0FB689B68FA68D2681046984768
:10214000786805F0C1F800E000BF2837BD4680BDC3
:10215000000001400010014000200140003001401B
:1021600000401140005011403000002080B584B084
:1021700000AF78607B681B4A934214D07B681A4A90
:1021800093420ED07B68194A934208D07B68184A64
:10219000934201D1032307E04FF0FF3304E0022311
:1021A00002E0012300E000235B01124A1344FB60BC
:1021B000786805F05DFDFB681B68002B0ED0FB689E
:1021C0009B69002B03D1FB681B69002B03D1FB68C3
:1021D000DB68002B02D0F86805F03EFD00BF103729
:1021E000BD4680BD00200440003004400040044053
:1021F000005014400009002080B500AF0248FFF7EE
:10220000B5FF00BF80BD00BF0020044080B500AF17
:102210000248FFF7ABFF00BF80BD00BF00300440A5
:1022200080B500AF0248FFF7A1FF00BF80BD00BF2F
:102230000040044080B500AF0248FFF797FF00BFA1
:1022400080BD00BF0050144080B500AF0248FFF7CA
:10225000F1FE00BF80BD00BF0000014080B500AFAF
:102260000248FFF7E7FE00BF80BD00BF001001403D
:1022700080B500AF0248FFF7DDFE00BF80BD00BFA4
:102280000020014080B584B000AF03F077F9034629
:10229000FB60124BBB60FB6803F04003002B19D0BE
:1022A000402003F075F9BB685B683A461146184652
:1022B00001F09AFD78607B68002B0ADB3B689B6825
:1022C000002B07D03B689B683A68D2681046984755
:1022D00000E000BF1037BD4680BD00BF20000020D9
:1022E00080B58AB000AF786039607B681B68414A6E
:1022F000934217D07B681B683F4A934210D07B689B
:102300001B683E4A934209D07B681B683C4A934253
:1023100001D1032307E04FF0FF3304E0022302E082
:10232000012300E000233B6207F1080300221A604A
:102330005A609A60DA603B6A002B10D03B6A012B2E
:102340000BD03B6A022B06D03B6A032B01D15823EA
:1023500006E0002304E0222302E00F2300E00E2326
:10236000BB603B68002B02D0264B7B6218E07B6889
:10237000DA687B685B699A4206D17B68DB68002B70
:1023800002D0214B7B620BE07B681A697B689B69FA
:102390009A4229D17B681B69002B25D01B4B7B629D
:1023A0007B6A5B6807F1080207F11801184601F023
:1023B00069FDF861FB69002B18D1154A3B6A5B0186
:1023C000134400221A60BB699B68002B0FD0114B8D
:1023D00001221A70BB699B68BA69D2681046984797
:1023E0000C4B00221A7002E000BF00E000BF28374B
:1023F000BD4680BD00200440003004400040044041
:102400000050144018000020080000201000002098
:10241000000900208009002080B584B000AF7860FA
:1024200039603B68002B02D16FF0150323E0144B99
:102430001B68002B05D0124B1A687B681A600023BA
:1024400019E01021012001F0E7F9F860FB68002B8A
:1024500002D16FF00B030EE03B681A68FB681A604C
:102460003B689A68FB68DA607B68FA681A60044A1D
:10247000FB681360002318461037BD4680BD00BFBF
:10248000F008002080B584B000AF78607B68002B36
:1024900002D16FF015032FE00023FB6022E0BB6840
:1024A000184601F0C7F9164AFB68DB0013445B6865
:1024B00007F108021146184601F01DFD0346002BE6
:1024C000EDD00F4AFB68DB0013445B68184601F04F
:1024D00081FB0B4AFB68DB00134400225A60FB6857
:1024E0000133FB60FB68062BDDD9786801F0A2F9A7
:1024F000044B00221A60002318461037BD4680BDE9
:1025000000000020F008002080B58AB000AFF8601D
:10251000B9607A6007F1100300221A605A609A606D
:10252000DA60BB683B61B868FFF760FD0346002BCB
:1025300002D06FF0570340E1FB68002B02D07B68AC
:10254000002B02D16FF0150337E17B685B7A032B18
:1025500000F0C980032B00F32181012B02D0022B54
:1025600066D01BE17B681B7A964ADB0013445B68EC
:10257000002B10D17B681B7ADB00924A1344043392
:10258000914A0321184601F0E1FA78627B6A002B38
:1025900001D07B6A11E17B681B7A8A4ADB00134415
:1025A0005B6807F1100207F12001184601F06AFC90
:1025B00078627B6A002B2BD01021012001F02CF9CE
:1025C00003463B623B6A002B02D16FF00B03F4E041
:1025D0003B6ABA681A603B6A7A68D2685A603B6A9A
:1025E0007A6812689A603B6A7A685268DA607B6837
:1025F0001B7A744ADB0013445B683A6A114618463A
:1026000001F048FB78627B6A002B00F0CA80CFE0C3
:102610003B6ABA681A603B6A7A68D2685A603B6A59
:102620007A6812689A603B6A7A685268DA60B8E041
:10263000644B5B6A002B0AD1634A0321634801F0B3
:1026400085FA78627B6A002B01D07B6AB5E05D4B2E
:102650005B6A07F120021146184601F0C5FB78625B
:102660007B6A002B26D01021012001F0D5F803460B
:102670003B623B6A002B02D16FF00B039DE03B6A8B
:10268000BA681A603B6A7A68D2685A603B6A7A68AC
:1026900012689A603B6A7A685268DA60494B5B6AF2
:1026A0003A6A1146184601F0C0FA78627B6A002B3C
:1026B0000FD07DE03B6ABA681A603B6A7A68D268DC
:1026C0005A603B6A7A6812689A603B6A7A68526814
:1026D000DA60022002F032FF78627B6A002B62D05F
:1026E0006FF00F0369E0374B5B6B002B0AD1364A62
:1026F0000321374801F02AFA78627B6A002B01D067
:102700007B6A5AE07B681B7A2E4ADB0013445B68C5
:1027100007F1100207F12001184601F0B3FB7862BF
:102720007B6A002B2AD01021012001F075F80346A6
:102730003B623B6A002B02D16FF00B033DE03B6A2A
:10274000BA681A603B6A7A68D2685A603B6A7A68EB
:1027500012689A603B6A7A685268DA607B681B7A12
:10276000184ADB0013445B683A6A1146184601F0C8
:1027700091FA78627B6A002B17D019E03B6ABA683D
:102780001A603B6A7A68D2685A603B6A7A68126853
:102790009A603B6A7A685268DA6006E06FF0150367
:1027A0000BE000BF02E000BF00E000BF002304E038
:1027B0003B6A184601F03EF87B6A18462837BD464A
:1027C00080BD00BF00000020CD1F001024000020AD
:1027D0003400002080B58AB000AFF860B9607A603C
:1027E00000233B6207F1100300221A605A609A60CE
:1027F000DA60BB683B61B868FFF7F8FB0346002B63
:1028000002D06FF0570332E0FB68002B02D07B68E8
:10281000002B02D16FF0150329E07B685B7A012B56
:1028200002D0022B04D009E07B68DB687B6105E005
:10283000114B7B61022002F091FE00BF7B681B7A86
:102840000E4ADB0013445B6807F1100207F1200118
:10285000184601F0D2FB78627B6A002B02D06FF041
:10286000120304E03B6A184600F0E4FF7B6A184656
:102870002837BD4680BD00BF00601040000000202A
:1028800080B485B000AFF860B9601346FB716FF09B
:10289000570318461437BD465DF8047B704780B473
:1028A00083B000AF786062B600BF002318460C37D3
:1028B000BD465DF8047B704780B483B000AF78609C
:1028C00072B600BF002318460C37BD465DF8047B86
:1028D000704780B582B000AF786039603B68632B89
:1028E00002D96FF0150305E03B685BB21846FFF7AD
:1028F0000FFB002318460837BD4680BD80B582B067
:1029000000AF786039603B68632B02D96FF0150324
:1029100005E03B685BB21846FFF714FB002318463E
:102920000837BD4680BD80B584B000AFF860B9609F
:102930007A60BB68632B02D96FF0150306E0BB68B1
:102940005BB279681846FFF717FB0023184610376B
:10295000BD4680BD80B586B002AF78607B68DB691C
:10296000BB607B685B68002B0DD07B685B68012BCC
:1029700007D07B685B68022B01D14D4804E0002042
:1029800002E04C4800E04C48BB681B681946BB6835
:102990001B791A467B689B68019300920B460022C4
:1029A000012102F085FEF860FB68002B03D06FF078
:1029B0001503FB6060E07B685B68002B0DD07B68D3
:1029C0005B68012B07D07B685B68022B01D1384B19
:1029D00004E0002302E0374B00E0374B7A68527B7B
:1029E0001146184602F092FFF860FB68002B03D0F6
:1029F0006FF01503FB603FE07B685B68002B0DD038
:102A00007B685B68012B07D07B685B68022B01D178
:102A1000274B04E0002302E0264B00E0264B012177
:102A2000184602F057FFF860FB68002B03D06FF0E8
:102A30001503FB6020E07B685B68002B0DD07B6892
:102A40005B68012B07D07B685B68022B01D1184BB8
:102A500004E0002302E0174B00E0174B0821184662
:102A600002F010FFF860FB68002B03D06FF0150335
:102A7000FB6001E0002316E07B685B68002B0DD053
:102A80007B685B68012B07D07B685B68022B01D1F8
:102A9000074B04E0002302E0064B00E0064B18461B
:102AA00002F07CFEFB6818461037BD4680BD00BFB3
:102AB00000800440007004400060044080B586B08F
:102AC00000AF786039603B68002B03D03B689B699E
:102AD000002B02D16FF015033EE02421012000F00D
:102AE0009BFE78617B69002B02D16FF00B0333E012
:102AF0003B689B693B613B681A687B695A603B682D
:102B00005A687B699A603B681A7A7B691A733B68DA
:102B10005A7A7B695A733B689A7A7B699A737B69A4
:102B20003A69DA617B695B68022B08D96FF015039B
:102B3000FB6000BF786900F07DFEFB680CE07869FF
:102B4000FFF708FFF860FB68002B01D0FB6803E08B
:102B50007B687A691A60002318461837BD4680BD25
:102B600080B582B000AF78607B68002B02D16FF037
:102B7000150319E07B685B68002B0DD07B685B68F0
:102B8000012B07D07B685B68022B01D1084B04E066
:102B9000002302E0074B00E0074B184602F0FEFD61
:102BA000786800F047FE002318460837BD4680BD10
:102BB00000800440007004400060044080B592B082
:102BC00000AFF860B9607A60FB68002B02D0BB6888
:102BD000002B02D16FF015038FE0FB681B7B3B6479
:102BE000FB685B68474A52F823303A6C9A420ED031
:102BF000F868FFF7AFFEF863FB6B002B01D0FB6BAF
:102C00007BE0FB685B683F493A6C41F82320FB6836
:102C10005B68002B0DD0FB685B68012B07D0FB685D
:102C20005B68022B01D1384B04E0002302E0374BF4
:102C300000E0374B7B61FB681B7BBB6100237B643F
:102C400056E07A6C1346DB009B1A9B001A46BB6861
:102C500013441B683B627A6C1346DB009B1A9B0093
:102C60001A46BB6813445B687B6200233B63002306
:102C70007B637A6C1346DB009B1A9B001A46BB6889
:102C800013441B7BFB613B6A002B09D07A6C134613
:102C9000DB009B1A9B001A46BB6813449B6800E04C
:102CA0000023BB627B6A002B09D07A6C1346DB00E1
:102CB0009B1A9B001A46BB6813449B6800E00023E4
:102CC000FB6207F11403184602F09CFEF863FB6BED
:102CD00013F1030F02D16FF015030EE0FB6B13F13C
:102CE000070F02D16FF00F0307E07B6C01337B64A9
:102CF0007A6C7B689A42A4D3002318464837BD46B5
:102D000080BD00BFF4080020008004400070044033
:102D10000060044080B58CB000AFF860B960134625
:102D2000FB8007F1140300221A605A609A60DA608F
:102D30001A615A619A61BB687B61BB68BB61FB88A1
:102D4000FB61012387F8203007F1140301221946A3
:102D5000F868FFF733FF034618463037BD4680BD9D
:102D600080B586B000AFF860B9607A6000237B61FF
:102D7000FB68002B05D0BB68002B02D07B68002BC2
:102D800002D16FF0150349E0FB68DB68002B1FD010
:102D900000237B6116E0FB68D868BA687B6913443E
:102DA000194600F0A8FD38613B69002B07D07B690C
:102DB000002B01D07B6931E06FF00A032EE07B69C4
:102DC00001337B617B687A699A42E4D37B6925E0B1
:102DD000FB681B79002B13D0FB681B79012B0DD0EE
:102DE000FB681B79022B07D0FB681B79032B01D1F1
:102DF0000C4B06E0002304E00B4B02E00B4B00E021
:102E00000B4B3A1DB968184604F072FE38613B69F5
:102E1000002B02D06FF0040300E07B6818461837DF
:102E2000BD4680BD005014400040044000300440C6
:102E30000020044080B588B000AFF860B9607A60C7
:102E40000023FB6108237B61FB68002B05D0BB6876
:102E5000002B02D07B68002B5DD16FF015035EE084
:102E60007B68082B02D908237B6101E07B687B61CA
:102E700000BFFB681B79002B13D0FB681B79012B6B
:102E80000DD0FB681B79022B07D0FB681B79032B45
:102E900001D1254B06E0002304E0244B02E0244B43
:102EA00000E0244B184604F0CBFE034603F0400339
:102EB000002BDED0FB681B79002B13D0FB681B793D
:102EC000012B0DD0FB681B79022B07D0FB681B7907
:102ED000032B01D1144B06E0002304E0134B02E066
:102EE000134B00E0134BFA69B968114407F114025F
:102EF000184604F00DFEB8617B69FA691344FB6162
:102F00007B691A467B689B1A7B60BB69002B02D0E9
:102F10006FF0040303E07B68002BA1D1FB69184626
:102F20002037BD4680BD00BF005014400040044023
:102F3000003004400020044080B586B000AFF86047
:102F4000B9607A60FB68002B05D0BB68002B02D00B
:102F50007B68002B02D16FF015035DE0FB681B79E5
:102F60007B617B69002B10D07B69012B0BD07B69C7
:102F7000022B06D07B69032B01D1294B06E00023ED
:102F800004E0284B02E0284B00E0284B28497A69EE
:102F900052010A441360264A7B695B0113440833DB
:102FA000BA681A60224A7B695B01134410337A685D
:102FB0001A601F4A7B695B011344043300221A60C4
:102FC0001B4A7B695B0113440C3300221A60184AC8
:102FD0007B695B011344183300221A60144A7B6931
:102FE0005B0113441C33134A1A60134B1B7883F0A4
:102FF0000103DBB2002B0ED07B695B010C4A13444A
:10300000184604F029FE38613B6913F1060F02D11E
:103010006FF00F0300E0002318461837BD4680BD4F
:1030200000501440004004400030044000200440A0
:1030300000090020E12200108009002080B586B040
:1030400000AFF860B9607A60FB68002B05D0BB6800
:10305000002B02D07B68002B02D16FF015035DE0DE
:10306000FB681B797B617B69002B10D07B69012B8E
:103070000BD07B69022B06D07B69032B01D1294B36
:1030800006E0002304E0284B02E0284B00E0284B38
:1030900028497A6952010A441360264A7B695B0118
:1030A00013440433BA681A60224A7B695B011344F3
:1030B0000C337A681A601F4A7B695B01134408333A
:1030C00000221A601B4A7B695B0113441033002203
:1030D0001A60184A7B695B011344143300221A609A
:1030E000144A7B695B0113441C33134A1A60134B67
:1030F0001B7883F00103DBB2002B0ED07B695B01F0
:103100000C4A1344184604F0A7FD38613B6913F1DB
:10311000060F02D16FF00F0300E0002318461837A6
:10312000BD4680BD005014400040044000300440C3
:103130000020044000090020E12200108009002046
:1031400080B584B000AF78607B68FB60FB68DB68AB
:10315000074A12781146184600F0EEFB0122044996
:10316000F868FFF7E9FE00BF1037BD4680BD00BF1D
:103170008109002080B592B000AF786039603B686B
:10318000002B03D03B689B69002B02D16FF0150325
:103190009CE11C21012000F03FFBF862FB6A002B40
:1031A00002D16FF00B0391E10421012000F034FB08
:1031B000B862FB6A002B03D16FF00B037B647BE1E9
:1031C000FB6ABA6A9A613B681B78002B13D03B6894
:1031D0001B78012B0DD03B681B78022B07D03B6876
:1031E0001B78032B01D18B4B06E0002304E08A4BB4
:1031F00002E08A4B00E08A4B3B633B689B697B6241
:103200003B681A78FB6A1A713B68DA68FB6A1A61D4
:103210003B685B7C042B0CD0042B0DDC002B02D014
:10322000032B03D008E000237B6309E003237B63C7
:1032300006E001237B6303E06FF015037B643BE151
:103240003B681B7C032B17D801A252F823F000BF68
:1032500061320010673200106D32001073320010BE
:103260000523FB630CE00623FB6309E00723FB63F4
:1032700006E00823FB6303E06FF015037B641BE1AA
:103280003B689B7C002B02D0012B03D005E0002380
:103290003B6406E001233B6403E06FF015037B64AD
:1032A0000AE17B6A1B78002B02D0012B03D005E0DA
:1032B0000023BB6306E00123BB6303E06FF015034B
:1032C0007B64F9E0FB6A1B6900221946386B04F045
:1032D00079F878647B6C002B03D06FF015037B6466
:1032E000EAE0F96B386B04F013FA78647B6C002B1E
:1032F00003D06FF015037B64DEE07B6BDBB2194615
:10330000386B04F023FA78647B6C002B03D06FF0E9
:1033100015037B64D0E03B6CDBB21946386B04F0DC
:1033200005FA78647B6C002B03D06FF015037B6487
:10333000C2E0BB6BDBB208221946386B04F016FA08
:1033400078647B6C002B03D06FF015037B64B3E0D3
:103350007B68FA6A1A603B681B7A002B00F09C803D
:10336000FB6A0C33184600F070FA78647B6C002B13
:1033700040F09F8007F1180300221A605A609A609B
:10338000284BFB61BB6A07F1180211461846FDF78E
:103390009FFE78647B6C002B40F08D80224BBB60DD
:1033A000FB6AFB6002233B7401237B74FB6A1B797D
:1033B000002B13D0FB6A1B79012B0DD0FB6A1B7904
:1033C000022B07D0FB6A1B79032B01D1114B06E0BE
:1033D000002304E0104B02E0104B00E0104B7B6137
:1033E000BB6A1868FB6A1B79002B1FD0FB6A1B792C
:1033F000012B0DD0FB6A1B79022B07D0FB6A1B79CE
:10340000032B01D1582312E0002310E022230EE009
:103410000F230CE0005014400040044000300440F2
:10342000002004400C0B0110413100100E2307F165
:1034300008021946FDF7A9FE78647B6C002B2DD19C
:10344000BB6A1A68FB6A1B79002B13D0FB6A1B79D5
:10345000012B0DD0FB6A1B79022B07D0FB6A1B796D
:10346000032B01D1582306E0002304E0222302E0CD
:103470000F2300E00E2319461046FDF7CEFE7864B8
:103480007B6C002B0CD101221249F86AFFF754FD26
:1034900078647B6C002B05D1002317E000BF02E0AD
:1034A00000BF00E000BFBB6A1B681846FDF742FE84
:1034B00002E000BF00E000BFB86A00F0BBF9F86AA4
:1034C00000F0B8F9386B04F005F87B6C1846483703
:1034D000BD4680BD8109002080B588B000AF78600E
:1034E00007F10C0300221A605A609A60DA60022326
:1034F0003B7501237B757B681B79002B13D07B68A0
:103500001B79012B0DD07B681B79022B07D07B68C0
:103510001B79032B01D1474B06E0002304E0464B07
:1035200002E0464B00E0464BBB617B68002B02D1BA
:103530006FF0150379E07B689B69FB617B68DB6852
:10354000002B4DD0FB691A687B681B79002B13D0C8
:103550007B681B79012B0DD07B681B79022B07D070
:103560007B681B79032B01D1582306E0002304E07C
:10357000222302E00F2300E00E2319461046FDF738
:103580006EFEFB6918687B681B79002B13D07B6883
:103590001B79012B0DD07B681B79022B07D07B6830
:1035A0001B79032B01D1582306E0002304E02223DA
:1035B00002E00F2300E00E2307F10C021946FDF78D
:1035C00008FEFB691B681846FDF7B4FD7B68DB68E5
:1035D000184600F0D2F97B68DB68184600F02AF93B
:1035E0007B681B79002B13D07B681B79012B0DD0D6
:1035F0007B681B79022B07D07B681B79032B01D1D9
:103600000C4B06E0002304E00B4B02E00B4B00E008
:103610000B4B184603F05EFF7B689B69184600F071
:1036200009F9786800F006F9002318462037BD46EE
:1036300080BD00BF005014400040044000300440F2
:103640000020044080B483B000AF78606FF057036F
:1036500018460C37BD465DF8047B704780B582B0D4
:1036600000AF78607B68002B0BD0084A7B68136042
:10367000074B1B68986800230222002108F080FB9A
:1036800000E000BF0837BD4680BD00BF84090020B0
:103690003007002080B582B000AF78607B68002BD7
:1036A00004DB7B68022B01DC002306E008F0C6FE89
:1036B000034609221A604FF0FF3318460837BD460B
:1036C00080BD80B582B000AF78607B68002B04DBE2
:1036D0007B68022B01DC012305E008F0AFFE034606
:1036E00009221A60002318460837BD4680BD80B500
:1036F00084B000AFF860B9607A6008F09FFE0346BE
:1037000009221A604FF0FF3318461037BD4680BDBE
:1037100080B582B000AF786039607B68002B08DB31
:103720007B68022B05DC3B684FF400525A60002393
:1037300005E008F083FE034609221A6000231846BC
:103740000837BD4680BD000080B586B000AFF86088
:10375000B9607A60FB68002B15D1104B1B687A6842
:10376000B9681846FDF73CFF78617B69002B08DAE1
:1037700008F064FE02467B695B4213604FF0FF3342
:1037800008E07B6906E008F059FE034609221A604A
:103790004FF0FF3318461837BD4680BD840900201E
:1037A00080B586B000AFF860B9607A60FB68012B25
:1037B00002D0FB68022B15D1104B1B687A68B968E0
:1037C0001846FDF73FFF78617B69002B08DA08F0A7
:1037D00035FE02467B695B4213604FF0FF3308E021
:1037E0007B6906E008F02AFE034609221A604FF0C2
:1037F000FF3318461837BD4680BD00BF840900203E
:1038000080B582B000AF7860786806F029FA034688
:1038100018460837BD4680BD80B582B000AF7860DD
:1038200039603968786806F0D9F9034618460837D0
:10383000BD4680BD80B582B000AF7860786806F084
:1038400017FA00BF0837BD4680BD80B584B000AF11
:1038500078607B68002B02D16FF0150320E008210F
:103860000120FFF7D9FFF860FB68002B02D16FF051
:103870000B0315E04FF480710120FFF7CDFF0246E6
:10388000FB681A60FB681B68002B05D1F868FFF71E
:10389000D1FF6FF00B0303E07B68FA681A60002326
:1038A00018461037BD4680BD80B483B000AF786045
:1038B0007B685B7901337A68127993420CBF0123EC
:1038C0000023DBB218460C37BD465DF8047B704719
:1038D00080B483B000AF78607B685A797B681B79CD
:1038E0009A420CBF01230023DBB218460C37BD46B9
:1038F0005DF8047B704780B582B000AF78603960B6
:103900007868FFF7E5FF0346002B02D04FF0FF3346
:103910000EE07B681B687A68127913441A783B685A
:103920001A707B681B790133DAB27B681A71002345
:1039300018460837BD4680BD80B582B000AF7860BC
:103940000B46FB707868FFF7AFFF0346002B02D0F1
:103950004FF0FF330DE07B681B687A68527913449F
:10396000FA781A707B685B790133DAB27B685A7136
:10397000002318460837BD4680BD80B582B000AF31
:1039800078607B68002B08D07B681B68002B04D014
:103990007B681B681846FFF74DFF00BF0837BD4620
:1039A00080BD80B483B000AF786039607A683B68CE
:1039B000D31A9B1018460C37BD465DF8047B704740
:1039C00080B586B000AFF860B9607A600C21012044
:1039D000FFF722FF78617B69002B01D1002309E00A
:1039E0007B69FA681A607B69BA685A607B697A6891
:1039F0009A607B6918461837BD4680BD80B485B093
:103A000000AFF860B9607A60FB68002B07D0BB6834
:103A1000002B01D0BB6800E07B68FA689360BB684C
:103A2000002B05D0BB68FA685A60BB687A689A6058
:103A30007B68002B07D0BB68002B01D0BB6800E07F
:103A4000FB687A68536000BF1437BD465DF8047B9D
:103A5000704780B485B000AFF860B9607A60FB68E9
:103A60001B68BA689A420CD1FB687A685A60BB68D6
:103A7000002B02D07B68002B0FD1FB687A681A609C
:103A80000BE0FB68BA681A607B68002B02D0BB6849
:103A9000002B02D1FB68BA685A6000BF1437BD46DC
:103AA0005DF8047B7047000080B483B000AF78609D
:103AB0000B46FB70FB78012B11D0032B1FD17B68C9
:103AC0001A4A1A607B681A4A5A607B68194A9A60D7
:103AD0007B68194ADA607B68184A1A611FE07B68C4
:103AE000174A1A607B68124A5A607B68114A9A60CA
:103AF0007B68114ADA607B68104A1A610FE07B68C4
:103B00000F4A1A607B680F4A5A607B680A4A9A60BB
:103B10007B68084ADA607B680B4A1A6100BF00BF05
:103B20000C37BD465DF8047B704700BFFF3C0010BA
:103B3000F73E0010E93D0010373E0010853D0010B3
:103B4000953C0010793F0010B73D001080B586B05D
:103B500000AFF8600B467A60FB72FB68002B02D165
:103B60004FF0FF332FE018210120FFF755FE786159
:103B70007B69002B02D14FF0FF3324E01C21012090
:103B8000FFF74AFE38613B69002B05D17869FFF7E2
:103B900051FE4FF0FF3316E0FB687A691A607B69CB
:103BA0003A695A617B68002B01D07B6800E0084BC2
:103BB0003A69D360FB7A19467869FFF775FF3B696C
:103BC0003A695A61002318461837BD4680BD00BFC8
:103BD000A339001080B584B000AF78607B68002BFB
:103BE00002D14FF0FF331CE07B685B69FB60FB6830
:103BF0001B69002B02D04FF0FF3312E000BF07F12A
:103C000008031946786800F076F90346002BF6D0D1
:103C10007B685B691846FFF70DFE7868FFF70AFEC0
:103C2000002318461037BD4680BD80B586B000AF72
:103C3000786039607B68002B02D14FF0FF3325E0BC
:103C40007B685B697B6100233B617B691B68FB6070
:103C5000FA6839693868FFF7B3FEB860BB68002BB3
:103C600002D14FF0FF3311E0FA68B9683869FFF705
:103C7000C5FE7B695B681A46B9687869FFF7E9FE9B
:103C80007B699B685A1C7B699A6000231846183729
:103C9000BD4680BD80B586B000AF786039607B6876
:103CA000002B02D14FF0FF3325E07B685B697B611D
:103CB0007B695B683B610023FB60FA68396938689F
:103CC000FFF77EFEB860BB68002B02D14FF0FF33D8
:103CD00011E0FA68B9683869FFF790FE7B691B68E4
:103CE000BA6819467869FFF7B4FE7B699B685A1C6D
:103CF0007B699A60002318461837BD4680BD80B5A1
:103D000084B000AF786039607B68002B02D14FF03F
:103D1000FF3333E07B685B69BB60BB681B68FB609B
:103D20000CE0BB68DB68FA6812683968104698478F
:103D30000346002B06DCFB689B68FB60FB68002BDE
:103D4000EFD100E000BFFB68002B0CD1BB685A68C4
:103D5000BB689A61BB68143301223968184600F0C9
:103D600034FA03460AE0BB68FA689A61BB68143308
:103D700000223968184600F028FA03461846103722
:103D8000BD4680BD80B485B000AF786039607B6887
:103D9000002B02D14FF0FF3307E07B685B69FB60CB
:103DA000FB681B683A681A60002318461437BD4642
:103DB0005DF8047B704780B485B000AF78603960EF
:103DC0007B68002B02D14FF0FF3307E07B685B6913
:103DD000FB60FB685B683A681A600023184614377A
:103DE000BD465DF8047B704780B485B000AF786055
:103DF00039607B68002B02D03B68002B02D14FF06A
:103E0000FF3312E03B6800221A607B685B69FB604D
:103E1000FB681B68002B02D14FF0FF3305E0FB6805
:103E20001B681A683B681A60002318461437BD46A1
:103E30005DF8047B704780B485B000AF786039606E
:103E40007B68002B02D03B68002B02D14FF0FF3380
:103E500012E03B6800221A607B685B69FB60FB68CC
:103E60005B68002B02D14FF0FF3305E0FB685B6815
:103E70001A683B681A60002318461437BD465DF87F
:103E8000047B704780B586B000AFF860B9607A6097
:103E9000FB68002B02D0BB68002B02D14FF0FF3330
:103EA00025E0BB6800221A60FB685B697B617B6967
:103EB000002B02D14FF0FF3319E0FB685B697B6197
:103EC0007B691A687B699A617B6914337968184643
:103ED00000F0C3F80346002B02D04FF0FF3306E09A
:103EE0007B691433B968184600F04FF90346184649
:103EF0001837BD4680BD80B586B000AF78603960A8
:103F00007B68002B02D03B68002B02D14FF0FF33BF
:103F10002EE03B6800221A607B685B697B617B69ED
:103F20009B68002B02D14FF0FF3321E07B691B68B7
:103F30003B613B695B68FB603B699B68BB60BA683F
:103F40000021F868FFF75AFD7B695B681A46B9687B
:103F50007869FFF77EFD7B699B685A1E7B699A60D2
:103F60003B691A683B681A603869FFF763FC0023F5
:103F700018461837BD4680BD80B586B000AF786062
:103F800039607B68002B02D03B68002B02D14FF0D8
:103F9000FF332EE03B6800221A607B685B697B611F
:103FA0007B699B68002B02D14FF0FF3321E07B69D6
:103FB0005B683B613B695B68FB603B699B68BB601E
:103FC000BA680021F868FFF719FD7B691B68FA6879
:103FD00019467869FFF73DFD7B699B685A1E7B692E
:103FE0009A603B691A683B681A603869FFF722FCDF
:103FF000002318461837BD4680BD80B586B000AF97
:10400000F860B9607A60FB68002B02D0BB68002BB7
:1040100002D14FF0FF331CE0BB6800221A60FB683E
:104020005B697B617B691A687B699A617B69143380
:104030007968184600F011F80346002B02D04FF0C3
:10404000FF3306E07B691433B968184600F033F893
:10405000034618461837BD4680BD80B584B000AF12
:10406000786039607B68BB60BB68002B02D14FF081
:10407000FF331CE0BB681B681B68FB6012E0BB6879
:104080001B68DB68FA68126839681046984703466F
:10409000002B04D1BB68FA685A60002307E0FB6874
:1040A0009B68FB60FB68002BE9D14FF0FF3318469B
:1040B0001037BD4680BD80B584B000AF78603960F0
:1040C0007B68BB60BB68002B06D0BB685B68002BBD
:1040D00002D03B68002B02D14FF0FF3351E0BB68A8
:1040E0005B685868BB685B689B681A460021FFF7ED
:1040F00085FCBB685A68BB681B681B689A420BD179
:10410000BB681868BB685B689968BB681B685B68BC
:104110001A46FFF79EFC11E0BB685A68BB681B6833
:104120005B689A420AD1BB681868BB681B6819684B
:10413000BB685B685B681A46FFF78BFCBB681B6853
:104140009A68013A9A60BB685B681A683B681A60B3
:10415000BB685A68BB681B685B689A4204D1BB683D
:104160005B685B68FB6003E0BB685B689B68FB6047
:10417000BB685B681846FFF75DFBBB68FA685A606E
:10418000002318461037BD4680BD80B485B000AF0F
:10419000786039607B68FB60FB68002B06D0FB68A9
:1041A0005B68002B02D03B68002B02D14FF0FF333D
:1041B00005E0FB685B681A683B681A6000231846D4
:1041C0001437BD465DF8047B704780B58CB000AFF6
:1041D000F860B9601346FB71FB68BB62BB6A002BD9
:1041E00002D14FF0FF3355E0FB681B687B62FB791F
:1041F000002B0ED0BB6A5A68BB6A1B685B689A4288
:1042000007D107F11003B9681846FFF743FD0346CD
:1042100040E0FB7983F00103DBB2002B0ED0BB6AD8
:104220005A68BB6A1B681B689A4207D107F11003E2
:10423000B9681846FFF7F9FC03462BE0FB79002B21
:104240000AD0BB6A5968BB6A5B689B681A46B86843
:10425000FFF7B6FBF86209E0BB6A5B685968BB6AA6
:104260005B681A46B868FFF7ABFBF862FB6A002B85
:1042700002D14FF0FF330DE0FB6A5868FB6A9B6880
:104280001A46F96AFFF7BAFBBB6A1B689A680132E3
:104290009A60002318463037BD4680BD80B483B095
:1042A00000AF786000BF0C37BD465DF8047B7047F7
:1042B00080B483B000AF786000BF0C37BD465DF8B6
:1042C000047B704780B483B000AF786000BF0C37C8
:1042D000BD465DF8047B704780B483B000AF786062
:1042E00000BF0C37BD465DF8047B704780B485B0D5
:1042F00000AF78600023FB600CE07B6803F00103F3
:10430000002B01D0FB6809E07B685B087B60FB68E1
:104310000133FB607B68002BEFD120231846143754
:10432000BD465DF8047B704780B582B000AF786011
:1043300039607868FFF7DAFF02463B6803FA02F259
:104340007B68134018460837BD4680BD90B583B0E2
:1043500000AF786039603A687B6802EA03047868E5
:10436000FFF7C4FF034624FA03F318460C37BD4693
:1043700090BD2DE9B04384B000AFC7E902017A6077
:104380003B607B68DA1798469146D7E902014246BE
:104390004B4605F03BFA3B681A607B68DA171C460F
:1043A000154622462B46D7E9020105F02FFA0246B0
:1043B0000B46104619461037BD46BDE8B08380B4A1
:1043C00083B000AF78607B6801331B781AB27B68DA
:1043D0001B781B021BB213431BB29BB218460C374F
:1043E000BD465DF8047B704780B483B000AF786051
:1043F0007B6803331B781A467B6802331B781B02E9
:1044000013431A467B6801331B781B041A437B68ED
:104410001B781B06134318460C37BD465DF8047B1A
:104420007047000080B584B000AF7860124B1B6805
:10443000002B02D1104B114A1A600F4B1B68FB6016
:104440000D4B1A687B6813441A460D4B9A4207D9E4
:1044500007F0F4FF03460C221A604FF0FF3306E02A
:10446000054B1A687B681344034A1360FB681846BF
:104470001037BD4680BD00BF8809002018100020FD
:1044800000F0012080B400AF6FF010031846BD4665
:104490005DF8047B704780B400AF6FF010031846DE
:1044A000BD465DF8047B704780B485B000AF4FF027
:1044B00080439B6803F46063BB60BB68B3F5606FC7
:1044C00024D0BB68B3F5606F34D8BB68B3F5406FD8
:1044D0002CD0BB68B3F5406F2CD8BB68B3F5206F08
:1044E00020D0BB68B3F5206F24D8BB68B3F5006F4C
:1044F00015D0BB68B3F5006F1CD8BB68B3F5806FEF
:1045000007D0BB68B3F5C06F06D013E01B4BFB6050
:1045100013E01B4BFB6010E01A4BFB600DE01A4BE5
:10452000FB600AE04FF4E103FB6006E04FF4004358
:10453000FB6002E0144BFB6000BFBB68B3F5006F8B
:1045400009D14FF080439B689B0B03F00303FA688B
:1045500022FA03F3FB604FF080439B689B0903F052
:1045600007037B60FA687B6822FA03F3074A13604B
:1045700000BF1437BD465DF8047B704720BCBE0009
:104580000048E8018038010000E1F505380000200E
:1045900080B400AF00231846BD465DF8047B704729
:1045A00080B400AF00BFBD465DF8047B70470000DB
:1045B00080B500AF144B154A9A6062B600BF124B2B
:1045C000D3F88830104A43F47003C2F88830BFF340
:1045D0004F8F00BFBFF36F8F00BF042002F026FD96
:1045E000FFF762FF0A4B1B68094A43F080531360D0
:1045F000002002F025FC012002F022FCFFF7D0FF92
:10460000FDF77EFC00BF80BD00ED00E00000001063
:104610000068104080B582B000AF78607B68002BE6
:1046200043DB7B68072B40DC23497A6813469B00F9
:1046300013449B000B441B68002B36D001211F48FC
:1046400002F088FB0346002B02D06FF005032EE03A
:1046500019497A6813469B0013449B000B440022BF
:104660001A6015497A6813469B0013449B000B445B
:104670000C331B6800221A600F497A6813469B00AE
:1046800013449B000B440C3319680B487A6813469B
:104690009B0013449B0003440C331B684A685A6018
:1046A000064802F07EFB002301E06FF0020318468B
:1046B0000837BD4680BD00BF8C0900202C0A0020B1
:1046C00080B485B000AF7860134B1B78002B1CD1F1
:1046D0000023FB6013E00023BB600AE00F49FB6886
:1046E0005A01BB681344002241F82320BB68013300
:1046F000BB60BB681F2BF1DDFB680133FB60FB680F
:10470000012BE8DD044B01221A70002318461437F0
:10471000BD465DF8047B7047300C0020300A002055
:1047200080B586B000AF78607B68002B06D07B68D0
:10473000012B01D11E4B02E0002300E01D4BFB606A
:10474000F86800F01CF978617969F86800F00AF9F6
:1047500000233B6123E07B6903F00103002B18D0A9
:1047600015497B685A013B69134451F82330002BEB
:104770000FD011497B685A013B69134451F823302B
:104780000E487A6851013A690A4450F822201046CE
:1047900098473B6901333B617B695B087B617B69BF
:1047A000002BD8D100BF00BF1837BD4680BD00BF69
:1047B0000090004000800040300A0020300B0020B4
:1047C00080B400AF034B1B781846BD465DF8047BF0
:1047D000704700BF310C002080B582B000AF786018
:1047E0007B6803F00103002B02D0002002F028FBBD
:1047F0007B6803F00203002B02D0012002F020FBB3
:104800007868FFF75DFF034618460837BD4680BD50
:1048100080B584B000AF78607B681B68FB6000F0F7
:10482000CCF80346012B01D1002356E07B68197AAE
:104830007B685B681A46F86800F01AF9B860BB68D4
:10484000002B01D0BB6848E07B685B7A022B20D04C
:10485000022B30DC002B02D0012B09D02BE0FB68AF
:104860001A6E7B685B68DB431A40FB681A6625E0BA
:10487000FB681A6E7B685B681A43FB681A66FB6804
:10488000D3F8B8207B685B681A43FB68C3F8B8208C
:1048900014E0FB681A6E7B685B681A43FB681A6653
:1048A000FB68D3F8B8207B685B68DB431A40FB6881
:1048B000C3F8B82002E06FF002030EE07B681B7AB9
:1048C000002B01D1002308E07B68D97A7B685B6804
:1048D0001A46F86800F05FF8034618461037BD46E0
:1048E00080BD80B582B000AF786039603968786883
:1048F00000F06AF8034618460837BD4680BD80B50B
:1049000082B000AF786039603968786800F06BF881
:1049100000BF0837BD4680BD80B582B000AF78606B
:1049200039603968786800F06CF800BF0837BD4618
:1049300080BD80B582B000AF786039603968786832
:1049400000F06DF8034618460837BD4680BD80B5B7
:1049500082B000AF78607868FFF7E2FE00BF0837EA
:10496000BD4680BD80B582B000AF786039603968DF
:10497000786800F063F800BF0837BD4680BD80B599
:1049800082B000AF7860786800F066F80346184699
:104990000837BD4680BD80B584B000AFF8600B46D7
:1049A0007A60FB72FB7A7A681946F86800F0ECF8D6
:1049B000034618461037BD4680BD80B500AFFFF7EF
:1049C000FFFE0346184680BD80B483B000AF786018
:1049D00039607B685A6A3B68134018460C37BD46FD
:1049E0005DF8047B704780B483B000AF78603960B5
:1049F0007B683A68DA6100BF0C37BD465DF8047B1E
:104A0000704780B483B000AF786039607B683A68E3
:104A10001A6200BF0C37BD465DF8047B704780B456
:104A200083B000AF786039607B689A693B68134057
:104A300018460C37BD465DF8047B704780B483B0E0
:104A400000AF786039607B683A689A6400BF0C37C1
:104A5000BD465DF8047B704780B483B000AF7860DA
:104A60007B681B6C18460C37BD465DF8047B7047AD
:104A700080B584B000AFF8600B467A60FB72FFF738
:104A80009CFF0346012B01D1002379E0FB681A6BE0
:104A90007B681A43FB681A63FB687A685A60FB7A82
:104AA000052B69D801A252F823F000BFC54A0010B7
:104AB000E74A0010094B0010254B0010414B001035
:104AC0005D4B0010FB687A685A61FB687A685A602F
:104AD000FB687A681A67FB687A68DA67FB687A6845
:104AE000C3F888204BE0FB687A681A61FB687A6833
:104AF0005A60FB687A681A67FB687A68DA67FB684D
:104B00007A68C3F888203AE0FB687A68C3F888209E
:104B1000FB687A68DA67FB687A681A67FB687A6804
:104B20009A602CE0FB687A68C3F88820FB687A6892
:104B3000DA67FB687A68DA66FB687A689A601EE072
:104B4000FB687A68C3F88820FB687A689A67FB6814
:104B50007A681A67FB687A689A6010E0FB687A687E
:104B6000C3F88820FB687A689A67FB687A68DA6617
:104B7000FB687A689A6002E06FF0020300E00023AD
:104B800018461037BD4680BD80B584B000AFF860D0
:104B90000B467A60FB72FFF710FF0346012B01D131
:104BA000002368E0FB7A032B52D801A252F823F0CD
:104BB000C14B0010E74B00100B4C00102F4C0010A5
:104BC000FB68D3F8B0207B68DB431A40FB68C3F86E
:104BD000B020FB68D3F8B4207B68DB431A40FB6845
:104BE000C3F8B42046E0FB68D3F8B0207B681A43D2
:104BF000FB68C3F8B020FB68D3F8B4207B68DB43C4
:104C00001A40FB68C3F8B42034E0FB68D3F8B02046
:104C10007B68DB431A40FB68C3F8B020FB68D3F81D
:104C2000B4207B681A43FB68C3F8B42022E0FB6819
:104C3000D3F8B0207B681A43FB68C3F8B020FB6848
:104C4000D3F8B4207B681A43FB68C3F8B42011E0A2
:104C5000FB68D3F8B0207B68DB431A40FB68C3F8DD
:104C6000B020FB68D3F8B4207B68DB431A40FB68B4
:104C7000C3F8B420002318461037BD4680BD00BFDE
:104C800080B582B000AF7860786800F035F80346F0
:104C900018460837BD4680BD80B584B000AFF860C7
:104CA000B9607A607A68B968F86800F043F803463A
:104CB00018461037BD4680BD80B584B000AFF8609F
:104CC000B9607A607A68B968F86800F05EF80346FF
:104CD00018461037BD4680BD80B582B000AF786001
:104CE000044B1B681946786800F0DAFB00BF0837F0
:104CF000BD4680BD3C00002080B483B000AF78602A
:104D00007B68002B02D14FF0FF330DE07B681B6BFB
:104D100043F004027B681A6300BF7B681B6B03F0DF
:104D20000403002BF9D1002318460C37BD465DF86B
:104D3000047B704780B487B000AFF860B9607A60D8
:104D400000237B61FB68002B02D0BB68002B0BD1DA
:104D50004FF0FF3313E0FB68D96A7B695A1C7A6114
:104D6000BA681344CAB21A707A687B699A4205D944
:104D7000FB685B6803F00203002BECD07B691846EC
:104D80001C37BD465DF8047B704780B487B000AF28
:104D9000F860B9607A6000237B61FB68002B02D069
:104DA000BB68002B0CD14FF0FF3314E07B695A1C19
:104DB0007A61BA6813441B78DBB21A46FB68DA6280
:104DC0007A687B699A4205D9FB685B6803F0100337
:104DD000002BEBD07B6918461C37BD465DF8047B81
:104DE000704780B483B000AF78607B68DB6943F0C4
:104DF00080027B68DA6100BF7B68DB6903F08003B7
:104E0000002BF9D100BF00BF0C37BD465DF8047B15
:104E1000704780B483B000AF78607B685B6A43F012
:104E200080027B685A6200BF7B685B6A03F0800384
:104E3000002BF9D100BF00BF0C37BD465DF8047BE5
:104E4000704780B485B000AFF860B9607A60FB68E5
:104E5000BA689A60FB687A681A6100BF1437BD4669
:104E60005DF8047B7047000080B584B000AF7860C7
:104E700039607B68114A93420ED07B68104A934296
:104E800008D07B680F4A934201D1022305E04FF01E
:104E9000FF3302E0012300E000230B4A52F82330E5
:104EA000FB60FB68DB69002B04D0FB68DB693968B9
:104EB000F868984700BF1037BD4680BD00D001405C
:104EC00000E0014000F00140340C002080B483B0C9
:104ED00000AF78607B680022DA607B6800225A614C
:104EE0007B689A687B689A607B681A697B681A613C
:104EF0007B680E4A93420ED07B680D4A934208D0DD
:104F00007B680C4A934201D1022305E04FF0FF3346
:104F100002E0012300E00023074A002142F82310A9
:104F200000BF0C37BD465DF8047B704700D00140E0
:104F300000E0014000F00140340C002080B586B054
:104F400000AF7860924A7B6852F823307B61914AC7
:104F50007B6852F823303B617B68002B0BD07B6869
:104F6000012B06D07B68022B01D18B4B04E0002380
:104F700002E08A4B00E08A4BFB608A4A7B6852F869
:104F80002330BB60FB689B6803F4FE43002B19D001
:104F9000FB689A68FB689A60FB681A69FB681A618B
:104FA000FB680022DA60FB6800225A61F868FFF7AC
:104FB00067FE6FF00801F868FFF756FFF868FFF723
:104FC00085FFE2E0BB68DB687A699A4243D2FB68FE
:104FD0009B6803F02003002B13D0BB689A687B69A1
:104FE000D118BB68DA687B69D31A1A46F868FFF7EC
:104FF00063FE03461A467B6913447B61FB682022EB
:105000009A60BB68DB687A699A4206D2FB68DB6803
:1050100043F02002FB68DA6005E0FB68DB6823F000
:105020002002FB68DA60BB68DB687A699A4212D1B9
:10503000BB685B69002B0ED0FB681B6B43F0020260
:10504000FB681A63FB6801229A60FB68DB6843F027
:105050000102FB68DA60BB685B693A699A4219D25F
:10506000FB689B6803F01103002B13D0BB681A691F
:105070003B69D118BB685A693B69D31A1A46F8686C
:10508000FFF70AFE03461A463B6913443B61FB687F
:1050900010229A60BB68DB687A699A423AD1BB6891
:1050A0005B693A699A4235D0FB689B6803F001035B
:1050B000002B2FD0FB6801229A603B69002B06D1A0
:1050C000BB685B685B0043F00102FB68DA62BB68A7
:1050D0005A693B69D31AB3F5807F03D9FB68002274
:1050E0001A6205E0BB685A693B69D21AFB681A620A
:1050F000BB685B693A699A4206D2FB68DB6843F099
:105100001102FB68DA6005E0FB68DB6823F011023E
:10511000FB68DA60BB68DB687A699A422BD1BB68AE
:105120005B693A699A4226D1FB680022DA60FB6823
:1051300000225A61FB689A68FB689A60FB681A69EA
:10514000FB681A61BB689B69002B06D0FB681B6B70
:1051500043F00202FB681A6305E0FB681B6B43F037
:105160000402FB681A630021F868FFF77DFEF86807
:10517000FFF7ACFE09E006497B687A6941F8232015
:1051800004497B683A6941F823201837BD4680BD41
:10519000400C00204C0C002000F0014000E00140D9
:1051A00000D00140340C002080B586B000AFF8601C
:1051B000B9607A603B60FB689B687B613B6800225A
:1051C0001A607B6903F4FE43002B36D03B686FF016
:1051D00008021A60BB68002B04D0BB683A6804213F
:1051E000F868984707226FF07F41F868FFF729FEBB
:1051F000F868FFF70EFEF868FFF7F3FD7B68002202
:105200001A607B68043300221A60FB68924A93425A
:105210000ED0FB68914A934208D0FB68904A9342B3
:1052200001D1022305E04FF0FF3302E0012300E04B
:1052300000238C4A002142F823107B681B6803F08E
:105240001003002B06D17B6804331B6803F00103B5
:10525000002B20D07B6903F01003002B0AD0BB6821
:10526000002B04D0BB6800220221F8689847FB6835
:1052700010229A60FB681B6903F00103002B0AD01F
:10528000BB68002B04D0BB6800220621F868984751
:10529000FB6801221A617B681A6848F220031340F8
:1052A000002B06D17B6804331B6803F00203002B3C
:1052B00053D07B6903F02003002B0AD0BB68002B7E
:1052C00004D0BB6800220321F8689847FB682022BD
:1052D0009A60FB681B6903F00203002B0AD0BB68CD
:1052E000002B04D0BB6800220521F8689847FB68B2
:1052F00002221A617B6903F40043002B2DD03B6826
:1053000000221A60BB68002B04D0BB683A680421F5
:10531000F8689847FB684FF400429A607B68002267
:105320001A607B68043300221A60FB684A4A934281
:105330000ED0FB68494A934208D0FB68484A934222
:1053400001D1022305E04FF0FF3302E0012300E02A
:105350000023444A002142F823107B681B6803F0B5
:105360000103002B3DD07B6903F04003002B2DD0BF
:105370003B6800221A60BB68002B04D0BB683A6807
:105380000421F8689847FB6840229A607B680022F5
:105390001A607B68043300221A60FB682E4A93422D
:1053A0000ED0FB682D4A934208D0FB682C4A9342EA
:1053B00001D1022305E04FF0FF3302E0012300E0BA
:1053C0000023284A002142F823100AE07B6903F0F9
:1053D0000103002B05D0FB6801229A607B6808223C
:1053E0001A607B681B6803F00803002B53D07B69AD
:1053F00003F00803002B4ED07B6903F04003002B21
:1054000007D07B6903F00103002B02D1FB68402227
:105410009A60FB681B6803F40063002B24D0BB6810
:10542000002B04D0BB6800220121F8689847FB6874
:105430004FF480029A60FB6808229A60FB684FF480
:1054400000429A607B684FF621721A607B680433D1
:1054500002221A601FE000BF00D0014000E00140BE
:1054600000F00140340C0020BB68002B04D0BB6866
:1054700000220021F8689847FB684FF400029A6008
:10548000FB6808229A607B6847F611721A607B6895
:10549000043301221A6000BF1837BD4680BD00BF2B
:1054A00080B588B000AF786039607B681F4A93424E
:1054B0000ED07B681E4A934208D07B681D4A9342F7
:1054C00001D1022305E04FF0FF3302E0012300E0A9
:1054D0000023FB61FB69002B23DB7B681B6803F067
:1054E0000203002B03D0F869FFF728FD1AE0124AE7
:1054F000FB6952F82330BB617B68DB68FB607B682B
:105500005B693B6107F1140307F10C02B969786824
:10551000FFF74AFEFA687B68DA603A697B685A618D
:1055200000E000BF2037BD4680BD00BF00D0014075
:1055300000E0014000F00140340C002080B582B052
:1055400000AF78607968044800F044F803461846D4
:105550000837BD4680BD00BF0060104080B582B0F6
:1055600000AF78607968044800F059F8034618469F
:105570000837BD4680BD00BF0060104080B500AF59
:10558000024800F072F80346184680BD00601040E3
:1055900080B582B000AF78607968044800F073F895
:1055A000034618460837BD4680BD00BF0060104066
:1055B00080B400AF00BF064B1B6903F00803002B4B
:1055C000F9D100BF00BFBD465DF8047B704700BF46
:1055D0000060104080B582B000AF786039603B68F1
:1055E00003F026033B603B68002B02D16FF00203FF
:1055F00011E0FFF7DDFF7B681A693B681A437B689F
:105600001A613B6823F020033B603B68002B01D00C
:10561000FFF7CEFF002318460837BD4680BD80B592
:1056200082B000AF786039603B6803F026033B60CE
:105630003B68002B02D16FF0020312E0FFF7B8FFC6
:105640007B681A693B68DB431A407B681A613B68D8
:1056500023F020033B603B68002B01D0FFF7A8FF3D
:10566000002318460837BD4680BD80B483B000AF24
:1056700078607B681B6903F0D00318460C37BD4681
:105680005DF8047B704780B483B000AF7860396008
:105690007B681A693B6803F0D003DB431A407B68E0
:1056A0001A61002318460C37BD465DF8047B70472D
:1056B00080B588B002AFF860B9607A603B60FB6883
:1056C0002F4A93420ED0FB682E4A934208D0FB68C3
:1056D0002D4A934201D1022305E04FF0FF3302E04F
:1056E000012300E000237B613B68042B02DD6FF0A7
:1056F000020340E0254B1B685B087A6A9A4202D994
:105700006FF0020337E0FB681D4A934209D106207F
:1057100001F096FB0D2001F07FFD1D48FFF778F8A2
:105720001EE0FB68174A934209D1072001F088FB6D
:105730000E2001F071FD1748FFF76AF810E0FB68D2
:10574000114A934209D1082001F07AFB0F2001F0A1
:1057500063FD1148FFF75CF802E06FF001030AE017
:105760007B6A01933B6A00933B687A68B968F86882
:1057700000F054F9034618461837BD4680BD00BFF7
:1057800000600440007004400080044038000020A5
:10579000140C0110200C01102C0C011080B584B0E9
:1057A00000AF78607B681B4A93420ED07B681A4A30
:1057B000934208D07B68194A934201D1022305E045
:1057C0004FF0FF3302E0012300E00023FB60786824
:1057D00000F014FA7B680F4A934203D1062001F0CF
:1057E000F1FA12E07B680C4A934203D1072001F0E2
:1057F000E9FA0AE07B68094A934203D1082001F0E4
:10580000E1FA02E06FF0030300E0002318461037CE
:10581000BD4680BD0060044000700440008004402C
:1058200080B483B000AF78607B680B4A934207D0A6
:105830007B680A4A934203D07B68094A934203D1AA
:10584000084B1B685B0801E06FF0020318460C3739
:10585000BD465DF8047B7047006004400070044062
:10586000008004403800002080B582B000AF78602E
:1058700039603968786800F07FFA034618460837BF
:10588000BD4680BD80B582B000AF786039603968B0
:10589000786800F0D9FA034618460837BD4680BD3F
:1058A00080B582B000AF7860786800F03FFB0346B7
:1058B00018460837BD4680BD80B582B000AF78601D
:1058C00039603968786800F049FB034618460837A4
:1058D000BD4680BD80B582B000AF78600B46FB70DE
:1058E000FB781946786800F093FB034618460837A2
:1058F000BD4680BD80B582B000AF7860786800F0AA
:10590000C3FB034618460837BD4680BD80B582B04C
:1059100000AF78600B46FB70FB781946786800F0A2
:10592000D7FB034618460837BD4680BD80B582B018
:1059300000AF7860786800F01BFC03461846083713
:10594000BD4680BD80B582B000AF7860786800F059
:1059500028FC034618460837BD4680BD80B584B094
:1059600000AFF860B9607A607A68B968F86800F0EA
:105970002CFC034618461037BD4680BD80B582B06A
:1059800000AF7860786800F082FC0346184608375C
:10599000BD4680BD80B584B000AFF860B9607A6064
:1059A0007A68B968F86800F081FC03461846103739
:1059B000BD4680BD80B582B000AF7860786800F0E9
:1059C000D3FC034618460837BD4680BD80B582B07B
:1059D00000AF786039603968786800F0D6FC03461B
:1059E00018460837BD4680BD80B582B000AF7860EC
:1059F00039603968786800F0E5FC034618460837D6
:105A0000BD4680BD80B582B000AF7860786800F098
:105A1000F3FF034618460837BD4680BD80B586B003
:105A200000AFF860B9607A603B60FB686E4A9342F1
:105A30000ED0FB686D4A934208D0FB686C4A9342D3
:105A400001D1022305E04FF0FF3302E0012300E023
:105A500000237B617B69002B02DA6FF00203BEE05A
:105A600064497A6913469B001344DB000B4400220F
:105A70001A6060497A6913469B001344DB000B44AB
:105A8000083300221A605B497A6913469B0013446D
:105A9000DB000B440C3301221A6056497A69134625
:105AA0009B001344DB000B44103300221A60514961
:105AB0007A6913469B001344DB000B441C3300221D
:105AC0001A604C497A6913469B001344DB000B446F
:105AD000203300221A6047497A6913469B00134419
